:100000000C9481000C94B2000C94B2000C94B200D9
:100010000C94B2000C94B2000C94B2000C94B20098
:100020000C94B2000C94B2000C94B2000C94B20088
:100030000C94B2000C94B2000C94B2000C94B20078
:100040000C94B2000C94B2000C94B2000C94B20068
:100050000C94B2000C94B2000C94B2000C942C06D8
:100060000C94B2000C94F9050C9421050C94B20088
:100070000C94B2000C94B2000C94B2000C94B20038
:100080000C94B2000C94B2000C94B2000C94B20028
:100090000C94C6050C94E2040C94B2000C94B200CB
:1000A0000C94B2000C94B2000C94B2000C94B20008
:1000B0000C94B2000C94B2000C94B2000C94B200F8
:1000C0000C94B2000C94B2000C94B2000C94930502
:1000D0000C94A3040C94B2000C9460050C9464047A
:1000E0000C94B2000C947A010C9476060C941301D3
:1000F0000C9433010C94B4000C944F010C9408013F
:10010000760611241FBECFEFD1E2DEBFCDBF00E0E7
:100110000CBF12E0A0E0B2E0E4E9F4E100E00BBFC4
:1001200002C007900D92AA38B107D9F725E0AAE8D6
:10013000B2E001C01D92AB33B207E1F710E0C1E8B5
:10014000D0E000E006C021970109802FFE010E9447
:10015000310AC038D10780E00807A9F70E94480794
:100160000C94AD080C9400000F931F93CF93DF9372
:10017000FC01A685B7858D01005C1F4FE8018881D1
:10018000998101968F739927AD014E5B5F4FEA010C
:100190002881398128173907D1F3E801288139816D
:1001A000A20FB31F6C93A685B785A05CBF4F1196B5
:1001B0009C938E93A689B7892C9181E090E0078C5F
:1001C00002C0880F991F0A94E2F7822B8C9381E07A
:1001D00081A30488F589E02D80818064808381E09B
:1001E00090E0DF91CF911F910F910895CF93DF930E
:1001F0006DE089E195E00E94B400EC016AE089E1DC
:1002000095E00E94B4008C0F9D1FDF91CF9108955F
:10021000FC0181A1882329F0A489B5898C9186FFEE
:10022000FBCF11A20895FC01A485B585FD01E05C1A
:10023000FF4F2081318132968081918128173907C3
:1002400079F080819181A80FB91F8C912081318133
:100250002F5F3F4F2F7333273183208390E0089522
:100260008FEF9FEF0895DC011C96ED91FC911D9797
:10027000DF01A05CBF4F2D913C91119712968D919B
:100280009C9111972817390739F08D919C91E80FAF
:10029000F91F808190E008958FEF9FEF0895FC0192
:1002A00024853585F901E05CFF4F8081918132968C
:1002B00020813181821B930B8F7399270895FB0155
:1002C000E05CFF4F20813181DB01AE5BBF4F4D9180
:1002D0005C912F5F3F4F2F7333274217530741F035
:1002E00040815181DB01A40FB51F8C9331832083A2
:1002F00008950895CF92DF92EF92FF920F931F938C
:10030000CF93DF936C01EB017B01E40EF51E00E05F
:1003100010E0CE15DF0561F06991D601ED91FC91F9
:100320000190F081E02DC6011995080F191FF1CF3A
:10033000C801DF91CF911F910F91FF90EF90DF9057
:10034000CF9008953FB7F89480918F0290919002DA
:10035000A0919102B091920226B5A89B05C02F3FB3
:1003600019F00196A11DB11D3FBFBA2FA92F982FDB
:100370008827820F911DA11DB11DBC01CD0142E056
:10038000660F771F881F991F4A95D1F708953F92EE
:100390004F925F926F927F928F929F92AF92BF9295
:1003A000CF92DF92EF92FF920F931F93CF93DF9341
:1003B00000E010E0C12CD12C760101975C0191E4A2
:1003C000392E0A151B050CF049C080917B00877FF0
:1003D00080937B0030927C0080917A0080648093CF
:1003E0007A0080917A0086FDFCCF80917800909110
:1003F000790080FB882480F8912CC401002E02C073
:10040000880F991F0A94E2F7092E000CAA0BBB0B68
:10041000C826D926EA26FB2689E195E00E94080134
:100420000E94A201EB018AE0482E512C612C712C14
:100430000E94A2016C1B7D0B683E7340C8F381E0F3
:10044000481A510861087108C851DC4F4114510421
:100450006104710469F70F5F1F4FB3CF81E090E033
:10046000A0E0B0E004C0880F991FAA1FBB1FAA9488
:10047000D2F7BC01CD016C257D258E259F25DF910E
:10048000CF911F910F91FF90EF90DF90CF90BF9091
:10049000AF909F908F907F906F905F904F903F9024
:1004A0000895009769F0FC0101900020E9F7319769
:1004B000AF01481B590BBC0189E195E00C947A010E
:1004C00080E090E008958F929F92AF92BF92EF925A
:1004D000FF920F931F93CF93DF93CDB7DEB7A19712
:1004E0000FB6F894DEBF0FBECDBF162F042F19A292
:1004F000423008F40AE07E0121E2E20EF11C802E77
:10050000912CA12CB12C612FA50194010E94040A09
:10051000029F1019112481E0E81AF1081A3014F42E
:10052000105D01C0195CF7011083122F732FCA01EF
:10053000232B242B252B39F7C7010E945102A196AA
:100540000FB6F894DEBF0FBECDBFDF91CF911F91E4
:100550000F91FF90EF90BF90AF909F908F90089574
:10056000CF93DF930E945102EC010E94F6008C0FA2
:100570009D1FDF91CF910895CF92DF92EF92FF926E
:10058000CF93DF936B017C0197FF13C06DE289E18C
:1005900095E00E94B400EC0166277727CB016C1927
:1005A0007D098E099F094AE00E946302C80FD91F86
:1005B00004C04AE00E946302EC010E94F6008C0F26
:1005C0009D1FDF91CF91FF90EF90DF90CF90089526
:1005D0002F923F924F925F926F927F928F929F9253
:1005E000AF92BF92CF92DF92EF92FF920F931F9341
:1005F000CF93DF93CDB7DEB7C654D1400FB6F89492
:10060000DEBF0FBECDBF69017A0101E010E020E03E
:1006100030E0CF55DF4F088319832A833B83C15ACB
:10062000D040CB55DF4F188219821A821B82C55ADF
:10063000D04069837A838B839C83CD82DE82EF8274
:10064000F8868E010F5F1F4F9E012F553F4F1901F6
:1006500041E050E0CF5BDE4F59834883C154D14025
:10066000F80144805580668077804114510461040C
:10067000710409F458C080809180A280B380C501C4
:10068000B401A30192010E94040ACD5BDE4F2883CE
:1006900039834A835B83C354D140CF5BDE4F2881CB
:1006A0003981C154D1402F5F3F4FCF5BDE4F39833B
:1006B0002883C154D140A3019201CD5BDE4F6881F4
:1006C00079818A819B81C354D1400E94F409861AA2
:1006D000970AA80AB90AF80180869186A286B3868D
:1006E000F1016481758186819781CD5BDE4F288120
:1006F00039814A815B81C354D1400E94F4098080D2
:100700009180A280B380A5019401261B370B480B72
:10071000590B20873187428753870C5F1F4FF4E0C6
:100720002F0E311C9DCF80E192E00E945102CF5BE1
:10073000DE4FE881F981C154D1403197EE0FFF1FA0
:10074000EE0FFF1F21EA30E02C0F3D1FE20FF31FD9
:1007500080809180A280B380C501B4010E94BC0258
:10076000B7FE15C0C501B401A70196010E94040A95
:100770004B015C018AE192E00E945102C501B40183
:100780000E94BC028C0C9D1CAE1CBF1C22C0C81455
:10079000D904EA04FB0468F485E292E00E94510265
:1007A000C501B401A70196010E94040A4B015C0136
:1007B00010C081149104A104B10451F08C149D0463
:1007C000AE04BF0428F481E392E00E94510201C00C
:1007D00002C0B401C501CA5BDE4F0FB6F894DEBF9C
:1007E0000FBECDBFDF91CF911F910F91FF90EF9082
:1007F000DF90CF90BF90AF909F908F907F906F9041
:100800005F904F903F902F900895CF93DF934AE0F1
:100810000E946302EC010E94F6008C0F9D1FDF9185
:10082000CF9108958F929F92AF92BF92CF92DF9215
:10083000EF92FF920F931F93CF93DF936C01C6014A
:100840000E94C7014B015C010E94E6080E94AA09B0
:100850000E9423090E94B0087B0100E010E0C2E082
:10086000D0E0EC16FD06FCF0C501B4019E010D2E92
:10087000000C440B550B0E94040A672B682B692B54
:1008800019F40F5F1F4F2196C501B4019E010D2E73
:10089000000C440B550B0E94040A672B682B692B34
:1008A00001F32196DECF012B51F6C501B401DF9192
:1008B000CF911F910F91FF90EF90DF90CF90BF905D
:1008C000AF909F908F9008951F920F920FB60F9246
:1008D00011240BB60F922F933F938F939F93EF9317
:1008E000FF932091D3023091D4028091D502909150
:1008F000D6022817390731F4809131018F7D80931A
:10090000310114C0E091D502F091D602ED56FD4FB1
:1009100020818091D5029091D60201968F739927FC
:100920009093D6028093D50220933601FF91EF91E8
:100930009F918F913F912F910F900BBE0F900FBE03
:100940000F901F9018951F920F920FB60F921124BF
:100950000BB60F922F933F938F939F93EF93FF9339
:1009600020917D0330917E0380917F0390918003DD
:100970002817390731F48091D1008F7D8093D10001
:1009800014C0E0917F03F0918003E35CFC4F208171
:1009900080917F039091800301968F7399279093A4
:1009A000800380937F032093D600FF91EF919F9166
:1009B0008F913F912F910F900BBE0F900FBE0F9014
:1009C0001F9018951F920F920FB60F9211240BB61D
:1009D0000F922F933F938F939F93EF93FF932091C9
:1009E0002704309128048091290490912A04281723
:1009F000390731F48091C9008F7D8093C90014C0FC
:100A0000E0912904F0912A04E951FC4F2081809162
:100A1000290490912A0401968F73992790932A04B0
:100A2000809329042093CE00FF91EF919F918F91A5
:100A30003F912F910F900BBE0F900FBE0F901F9004
:100A400018951F920F920FB60F9211240BB60F92AA
:100A50002F933F938F939F93EF93FF932091D10414
:100A60003091D2048091D3049091D404281739078F
:100A700031F48091C1008F7D8093C10014C0E0915A
:100A8000D304F091D404EF56FB4F20818091D3041E
:100A90009091D40401968F7399279093D4048093F6
:100AA000D3042093C600FF91EF919F918F913F91C6
:100AB0002F910F900BBE0F900FBE0F901F901895A7
:100AC0001F920F920FB60F9211240BB60F922F9315
:100AD0003F934F935F936F937F938F939F93AF93C6
:100AE000BF93EF93FF938091300182FD07C0809107
:100AF000360167ED72E00E945F0102C0809136010D
:100B0000FF91EF91BF91AF919F918F917F916F91E5
:100B10005F914F913F912F910F900BBE0F900FBEA1
:100B20000F901F9018951F920F920FB60F921124DD
:100B30000BB60F922F933F934F935F936F937F93D7
:100B40008F939F93AF93BF93EF93FF938091D000C8
:100B500082FD07C08091D60061E873E00E945F01CA
:100B600002C08091D600FF91EF91BF91AF919F910C
:100B70008F917F916F915F914F913F912F910F9046
:100B80000BBE0F900FBE0F901F9018951F920F92E3
:100B90000FB60F9211240BB60F922F933F934F93E2
:100BA0005F936F937F938F939F93AF93BF93EF93D5
:100BB000FF938091C80082FD07C08091CE006BE258
:100BC00074E00E945F0102C08091CE00FF91EF911E
:100BD000BF91AF919F918F917F916F915F914F9155
:100BE0003F912F910F900BBE0F900FBE0F901F9053
:100BF00018951F920F920FB60F9211240BB60F92F9
:100C00002F933F934F935F936F937F938F939F9314
:100C1000AF93BF93EF93FF938091C00082FD07C015
:100C20008091C60065ED74E00E945F0102C0809172
:100C3000C600FF91EF91BF91AF919F918F917F91EE
:100C40006F915F914F913F912F910F900BBE0F903D
:100C50000FBE0F901F9018951F920F920FB60F9214
:100C600011242F933F938F939F93AF93BF938091C2
:100C70008B0290918C02A0918D02B0918E023091E6
:100C80008A0223E0230F2D3720F40196A11DB11D08
:100C900005C026E8230F0296A11DB11D20938A02EC
:100CA00080938B0290938C02A0938D02B0938E025E
:100CB00080918F0290919002A0919102B091920246
:100CC0000196A11DB11D80938F0290939002A09375
:100CD0009102B0939202BF91AF919F918F913F91FA
:100CE0002F910F900FBE0F901F901895CF92DF920B
:100CF000EF92FF92E9E1F5E01382128288EEC82EAE
:100D000083E0D82EE12CF12CC482D582E682F782D2
:100D100064E072E07183608385ED94E09587848759
:100D200081E994E09787868785EC90E0918B808BB2
:100D300084EC90E0938B828B80EC90E0958B848B9D
:100D400081EC90E0978B868B82EC90E0918F808F86
:100D500086EC90E0938F828F44E0448F33E0358FB0
:100D600027E0268F95E0978F81E080A3EFE6F4E0FF
:100D700013821282C482D582E682F78271836083F5
:100D8000ABE2B4E0B587A487A7EEB3E0B787A68748
:100D9000ADECB0E0B18BA08BACECB0E0B38BA28B30
:100DA000A8ECB0E0B58BA48BA9ECB0E0B78BA68B18
:100DB000AAECB0E0B18FA08FAEECB0E0B38FA28F01
:100DC000448F358F268F978F80A3E5ECF3E0138255
:100DD0001282C482D582E682F78271836083A1E8A1
:100DE000B3E0B587A487ADE3B3E0B787A687A5EDE9
:100DF000B0E0B18BA08BA4EDB0E0B38BA28BA0EDE3
:100E0000B0E0B58BA48BA1EDB0E0B78BA68BA2EDC3
:100E1000B0E0B18FA08FA6EDB0E0B38FA28F448F6A
:100E2000358F268F978F80A3EBE1F3E01382128238
:100E3000C482D582E682F7827183608367ED72E0B7
:100E40007587648763E972E07787668765E371E099
:100E5000718B608B64E371E0738B628B60E371E094
:100E6000758B648B61E371E0778B668B62E371E075
:100E7000718F608F66E371E0738F628F448F358F5F
:100E8000268F978F80A3FF90EF90DF90CF900895EB
:100E90008F929F92AF92BF92CF92DF92EF92FF928A
:100EA0000F931F93CF93DF93789484B5826084BDB2
:100EB00084B5816084BD85B5826085BD85B581605E
:100EC00085BD80916E00816080936E0010928100DC
:100ED0008091810082608093810080918100816097
:100EE0008093810080918000816080938000809158
:100EF000B10084608093B1008091B00081608093E4
:100F0000B000809191008260809391008091910067
:100F10008160809391008091900081608093900027
:100F20008091A10082608093A1008091A1008160E6
:100F30008093A1008091A00081608093A0008091A7
:100F40002101826080932101809121018160809341
:100F500021018091200181608093200180917A009D
:100F6000846080937A0080917A00826080937A0016
:100F700080917A00816080937A0080917A00806805
:100F800080937A001092C100E0912D05F0912E051A
:100F900081E090E09C010090390502C0220F331FD0
:100FA0000A94E2F72083E0912905F0912A05108246
:100FB000E0912B05F0912C052FEC208310923A053F
:100FC000E0912F05F091300540819C01009035059E
:100FD00002C0220F331F0A94E2F7242B2083E091F2
:100FE0002F05F091300540819C010090360502C02C
:100FF000220F331F0A94E2F7242B2083E0912F0560
:10100000F091300540819C010090370502C0220F0D
:10101000331F0A94E2F7242B2083E0912F05F091EF
:10102000300520810090380502C0880F991F0A946E
:10103000E2F78095822380838FE392E00E94B002E2
:101040008FE090E00E9412044B015C010E940504B5
:101050008BE492E00E94B00280E190E00E941204D2
:101060006B017C010E94050487E592E00E94B002BA
:10107000A5019401C701B6010E94F4090E9405046C
:1010800083E692E00E94B002A5019401215031094B
:1010900041095109C701B6016150710981099109DE
:1010A0000E94F4098B01D82FC92F0E94050481E703
:1010B00092E00E94B0028FE090E00E94C7014B01D5
:1010C0005C016801ED2EFC2EC501B401C114D104F0
:1010D000E104F10479F0A70196010E94040A562F59
:1010E000472F382F292FC701B601C52ED42EE32E46
:1010F000F22EECCF613071058105910531F08FEF53
:10110000881A980AA80AB80ADCCFC501B4010E945F
:10111000050498014D2F5C2FC501B4010E94E8021F
:101120006B017C018DE792E00E94B002C701B6011D
:101130000E94050489E195E00E94080180E090E0AA
:10114000DF91CF911F910F91FF90EF90DF90CF90A3
:10115000BF90AF909F908F900895F8940C94480A98
:101160000E94B7086894B1110C949E0908950E94DA
:101170006B0988F09F5798F0B92F9927B751B0F0B5
:10118000E1F0660F771F881F991F1AF0BA95C9F70B
:1011900014C0B13091F00E949D09B1E008950C9403
:1011A0009D09672F782F8827B85F39F0B93FCCF3B6
:1011B000869577956795B395D9F73EF49095809588
:1011C000709561957F4F8F4F9F4F0895E89409C0A8
:1011D00097FB3EF490958095709561957F4F8F4F6A
:1011E0009F4F9923A9F0F92F96E9BB279395F69580
:1011F000879577956795B795F111F8CFFAF4BB0FFE
:1012000011F460FF1BC06F5F7F4F8F4F9F4F16C061
:10121000882311F096E911C0772321F09EE8872FEB
:10122000762F05C0662371F096E8862F70E060E0A7
:101230002AF09A95660F771F881FDAF7880F969520
:10124000879597F908950E94850990F09F3748F493
:10125000911116F00C949E0960E070E080E89FEB1D
:10126000089526F41B16611D711D811D0C943A0909
:101270000C945509882371F4772321F09850872B1B
:10128000762F07C0662311F499270DC09051862B45
:1012900070E060E02AF09A95660F771F881FDAF7F2
:1012A000880F9695879597F908959F3F31F0915053
:1012B00020F4879577956795B795880F911D96953A
:1012C000879597F9089557FD9058440F551F59F089
:1012D0005F3F71F04795880F97FB991F61F09F3F23
:1012E00079F087950895121613061406551FF2CF4C
:1012F0004695F1DF08C0161617061806991FF1CF9C
:10130000869571056105089408950E946B09A0F007
:10131000BEE7B91788F4BB279F3860F41616B11DD5
:10132000672F782F8827985FF7CF869577956795F1
:10133000B11D93959639C8F30895E894BB276627A5
:101340007727CB0197F9089519F416F40C94EA095C
:101350000C9455090E946B09B8F39923C9F3B6F3AD
:101360009F57550B87FF0E94ED090024A0E640EA35
:10137000900180585695979528F4805C660F771FEA
:10138000881F20F026173707480730F4621B730BBD
:10139000840B202931294A2BA695179407942025E0
:1013A00031254A2758F7660F771F881F20F0261728
:1013B0003707480730F4620B730B840B200D311D87
:1013C000411DA09581F7B901842F9158880F9695FA
:1013D000879508959FEF80EC089591505040660FD7
:1013E000771F881FD2F70895DB018F939F930E9488
:1013F000260ABF91AF91A29F800D911DA39F900DD2
:10140000B29F900D11240895A1E21A2EAA1BBB1BB6
:10141000FD010DC0AA1FBB1FEE1FFF1FA217B307C0
:10142000E407F50720F0A21BB30BE40BF50B661FD6
:10143000771F881F991F1A9469F76095709580959A
:1014400090959B01AC01BD01CF0108950E94390A1E
:10145000A59F900DB49F900DA49F800D911D112408
:101460000895EE0FFF1F881F8BBF0790F691E02DA8
:101470001994A29FB001B39FC001A39F700D811D5D
:101480001124911DB29F700D811D1124911D08958D
:04149000F894FFCFFE
:1014940000000000B4007A014F0113013301080178
:1014A400735B692D315D203A2000466972737420A4
:1014B4006966203A005365636F6E64206966203A5A
:1014C400005468697264204F46206966203A0054CB
:1014D40068697320697320703A2000546869732026
:1014E400697320713A200054686973206973206E0F
:1014F4003A200054686973206973207068693A203F
:10150400005468697320697320653A20005468693F
:0A1514007320697320643A20000080
:00000001FF
