:100000000C9481000C94B2000C94B2000C94B200D9
:100010000C94B2000C94B2000C94B2000C94B20098
:100020000C94B2000C94B2000C94B2000C94B20088
:100030000C94B2000C94B2000C94B2000C94B20078
:100040000C94B2000C94B2000C94B2000C94B20068
:100050000C94B2000C94B2000C94B2000C94D50530
:100060000C94B2000C94A2050C94CA040C94B20037
:100070000C94B2000C94B2000C94B2000C94B20038
:100080000C94B2000C94B2000C94B2000C94B20028
:100090000C946F050C948B040C94B2000C94B20079
:1000A0000C94B2000C94B2000C94B2000C94B20008
:1000B0000C94B2000C94B2000C94B2000C94B200F8
:1000C0000C94B2000C94B2000C94B2000C943C0559
:1000D0000C944C040C94B2000C9409050C940D047F
:1000E0000C94B2000C947A010C9413010C9433011B
:1000F0000C94B4000C941F060C944F010C9408014E
:100100001F0611241FBECFEFD1E2DEBFCDBF00E03E
:100110000CBF12E0A0E0B2E0E6EEF3E100E00BBFBE
:1001200002C007900D92AA35B107D9F725E0AAE5DC
:10013000B2E001C01D92AB30B207E1F710E0C1E8B8
:10014000D0E000E006C021970109802FFE010E9447
:10015000DA09C038D10780E00807A9F70E94F10644
:100160000C9456080C9400000F931F93CF93DF93C9
:10017000FC01A685B7858D01005C1F4FE8018881D1
:10018000998101968F739927AD014E5B5F4FEA010C
:100190002881398128173907D1F3E801288139816D
:1001A000A20FB31F6C93A685B785A05CBF4F1196B5
:1001B0009C938E93A689B7892C9181E090E0078C5F
:1001C00002C0880F991F0A94E2F7822B8C9381E07A
:1001D00081A30488F589E02D80818064808381E09B
:1001E00090E0DF91CF911F910F910895CF93DF930E
:1001F0006DE089EE94E00E94B400EC016AE089EEC3
:1002000094E00E94B4008C0F9D1FDF91CF91089560
:10021000FC0181A1882329F0A489B5898C9186FFEE
:10022000FBCF11A20895FC01A485B585FD01E05C1A
:10023000FF4F2081318132968081918128173907C3
:1002400079F080819181A80FB91F8C912081318133
:100250002F5F3F4F2F7333273183208390E0089522
:100260008FEF9FEF0895DC011C96ED91FC911D9797
:10027000DF01A05CBF4F2D913C91119712968D919B
:100280009C9111972817390739F08D919C91E80FAF
:10029000F91F808190E008958FEF9FEF0895FC0192
:1002A00024853585F901E05CFF4F8081918132968C
:1002B00020813181821B930B8F7399270895FB0155
:1002C000E05CFF4F20813181DB01AE5BBF4F4D9180
:1002D0005C912F5F3F4F2F7333274217530741F035
:1002E00040815181DB01A40FB51F8C9331832083A2
:1002F00008950895CF92DF92EF92FF920F931F938C
:10030000CF93DF936C01EB017B01E40EF51E00E05F
:1003100010E0CE15DF0561F06991D601ED91FC91F9
:100320000190F081E02DC6011995080F191FF1CF3A
:10033000C801DF91CF911F910F91FF90EF90DF9057
:10034000CF9008953FB7F89480915F02909160023A
:10035000A0916102B091620226B5A89B05C02F3F13
:1003600019F00196A11DB11D3FBFBA2FA92F982FDB
:100370008827820F911DA11DB11DBC01CD0142E056
:10038000660F771F881F991F4A95D1F708952F92FE
:100390003F924F925F926F927F928F929F92AF9215
:1003A000BF92CF92DF92EF92FF920F931F93CF9362
:1003B000DF93CDB7DEB7C654D1400FB6F894DEBF99
:1003C0000FBECDBF69017A0101E010E020E030E00E
:1003D000CF55DF4F088319832A833B83C15AD0400E
:1003E000CB55DF4F188219821A821B82C55AD04022
:1003F00069837A838B839C83CD82DE82EF82F88649
:100400008E010F5F1F4F9E012F553F4F190141E095
:1004100050E0CF5BDE4F59834883C154D140F8018F
:1004200044805580668077804114510461047104D2
:1004300009F458C080809180A280B380C501B401C6
:10044000A30192010E94AD09CD5BDE4F2883398361
:100450004A835B83C354D140CF5BDE4F288139810F
:10046000C154D1402F5F3F4FCF5BDE4F398328838C
:10047000C154D140A3019201CD5BDE4F68817981E7
:100480008A819B81C354D1400E949D09861A970A94
:10049000A80AB90AF80180869186A286B386F1017E
:1004A0006481758186819781CD5BDE4F288139819A
:1004B0004A815B81C354D1400E949D098080918014
:1004C000A280B380A5019401261B370B480B590B62
:1004D00020873187428753870C5F1F4FF4E02F0E30
:1004E000311C9DCFCF5BDE4FE881F981C154D140F3
:1004F0003197EE0FFF1FEE0FFF1F21EA30E02C0FA8
:100500003D1FE20FF31F6081718182819381C616C6
:10051000D706E806F9062CF4A70196010E94AD095A
:1005200014C06C157D058E059F054CF4A70196013E
:100530000E94AD096C0D7D1D8E1D9F1D06C0C61647
:10054000D706E806F90609F403C0462F372F282FEF
:10055000642F732F822FCA5BDE4F0FB6F894DEBF75
:100560000FBECDBFDF91CF911F910F91FF90EF9004
:10057000DF90CF90BF90AF909F908F907F906F90C3
:100580005F904F903F902F9008953F924F925F92CF
:100590006F927F928F929F92AF92BF92CF92DF9293
:1005A000EF92FF920F931F93CF93DF9300E010E041
:1005B000C12CD12C760101975C0191E4392E0A15EA
:1005C0001B050CF049C080917B00877F80937B00E6
:1005D00030927C0080917A00806480937A008091D0
:1005E0007A0086FDFCCF809178009091790080FBA5
:1005F000882480F8912CC401002E02C0880F991F16
:100600000A94E2F7092E000CAA0BBB0BC826D926C8
:10061000EA26FB2689EE94E00E9408010E94A201CE
:10062000EB018AE0482E512C612C712C0E94A20112
:100630006C1B7D0B683E7340C8F381E0481A51087B
:1006400061087108C851DC4F411451046104710400
:1006500069F70F5F1F4FB3CF81E090E0A0E0B0E0FB
:1006600004C0880F991FAA1FBB1FAA94D2F7BC0110
:10067000CD016C257D258E259F25DF91CF911F9182
:100680000F91FF90EF90DF90CF90BF90AF909F9031
:100690008F907F906F905F904F903F90089500975C
:1006A00069F0FC0101900020E9F73197AF01481B88
:1006B000590BBC0189EE94E00C947A0180E090E043
:1006C0000895CF93DF930E944F03EC010E94F60040
:1006D0008C0F9D1FDF91CF9108958F929F92AF92C3
:1006E000BF92EF92FF921F93CF93DF93CDB7DEB708
:1006F000A1970FB6F894DEBF0FBECDBF162F19A27B
:100700007E0121E2E20EF11C2AE0822E912CA12C26
:10071000B12C612FA50194010E94AD098AE0289FA8
:1007200010191124E1E0EE1AF1081A3014F4105DEA
:1007300001C0195CF7011083122F732FCA01232BFC
:10074000242B252B31F7C7010E944F037C010E9407
:10075000F6008E0D9F1DA1960FB6F894DEBF0FBE5A
:10076000CDBFDF91CF911F91FF90EF90BF90AF90E1
:100770009F908F9008958F929F92AF92BF92CF9249
:10078000DF92EF92FF920F931F93CF93DF936C0151
:10079000C6010E94C5024B015C010E948F080E94A5
:1007A00053090E94CC080E9459087B0100E010E028
:1007B000C2E0D0E0EC16FD06FCF0C501B4019E01DC
:1007C0000D2E000C440B550B0E94AD09672B682BB6
:1007D000692B19F40F5F1F4F2196C501B4019E01CB
:1007E0000D2E000C440B550B0E94AD09672B682B96
:1007F000692B01F32196DECF012B51F6C501B4011F
:10080000DF91CF911F910F91FF90EF90DF90CF90EC
:10081000BF90AF909F908F9008951F920F920FB648
:100820000F9211240BB60F922F933F938F939F93A8
:10083000EF93FF932091A3023091A4028091A5022F
:100840009091A6022817390731F4809131018F7DEC
:100850008093310114C0E091A502F091A602ED59F8
:10086000FD4F20818091A5029091A60201968F7381
:1008700099279093A6028093A50220933601FF91B9
:10088000EF919F918F913F912F910F900BBE0F9001
:100890000FBE0F901F9018951F920F920FB60F92D8
:1008A00011240BB60F922F933F938F939F93EF9347
:1008B000FF9320914D0330914E0380914F0390910F
:1008C00050032817390731F48091D1008F7D809330
:1008D000D10014C0E0914F03F0915003E35FFC4F4F
:1008E000208180914F039091500301968F73992737
:1008F0009093500380934F032093D600FF91EF9184
:100900009F918F913F912F910F900BBE0F900FBE33
:100910000F901F9018951F920F920FB60F921124EF
:100920000BB60F922F933F938F939F93EF93FF9369
:100930002091F7033091F8038091F9039091FA0325
:100940002817390731F48091C9008F7D8093C90041
:1009500014C0E091F903F091FA03E954FC4F2081AF
:100960008091F9039091FA0301968F7399279093E0
:10097000FA038093F9032093CE00FF91EF919F91AA
:100980008F913F912F910F900BBE0F900FBE0F9044
:100990001F9018951F920F920FB60F9211240BB64D
:1009A0000F922F933F938F939F93EF93FF932091F9
:1009B000A1043091A2048091A3049091A40428176B
:1009C000390731F48091C1008F7D8093C10014C03C
:1009D000E091A304F091A404EF59FB4F2081809192
:1009E000A3049091A40401968F7399279093A40473
:1009F0008093A3042093C600FF91EF919F918F9164
:100A00003F912F910F900BBE0F900FBE0F901F9034
:100A100018951F920F920FB60F9211240BB60F92DA
:100A20002F933F934F935F936F937F938F939F93F6
:100A3000AF93BF93EF93FF938091300182FD07C086
:100A40008091360167EA72E00E945F0102C08091E6
:100A50003601FF91EF91BF91AF919F918F917F915F
:100A60006F915F914F913F912F910F900BBE0F901F
:100A70000FBE0F901F9018951F920F920FB60F92F6
:100A800011240BB60F922F933F934F935F936F9365
:100A90007F938F939F93AF93BF93EF93FF93809137
:100AA000D00082FD07C08091D60061E573E00E940E
:100AB0005F0102C08091D600FF91EF91BF91AF918D
:100AC0009F918F917F916F915F914F913F912F9166
:100AD0000F900BBE0F900FBE0F901F9018951F9296
:100AE0000F920FB60F9211240BB60F922F933F93D4
:100AF0004F935F936F937F938F939F93AF93BF9326
:100B0000EF93FF938091C80082FD07C08091CE00D3
:100B10006BEF73E00E945F0102C08091CE00FF91F5
:100B2000EF91BF91AF919F918F917F916F915F9165
:100B30004F913F912F910F900BBE0F900FBE0F90D2
:100B40001F9018951F920F920FB60F9211240BB69B
:100B50000F922F933F934F935F936F937F938F9356
:100B60009F93AF93BF93EF93FF938091C00082FD5B
:100B700007C08091C60065EA74E00E945F0102C070
:100B80008091C600FF91EF91BF91AF919F918F919E
:100B90007F916F915F914F913F912F910F900BBE7D
:100BA0000F900FBE0F901F9018951F920F920FB6C7
:100BB0000F9211242F933F938F939F93AF93BF93E3
:100BC00080915B0290915C02A0915D02B0915E0207
:100BD00030915A0223E0230F2D3720F40196A11DF6
:100BE000B11D05C026E8230F0296A11DB11D20935B
:100BF0005A0280935B0290935C02A0935D02B093D3
:100C00005E0280915F0290916002A0916102B091BA
:100C100062020196A11DB11D80935F029093600254
:100C2000A0936102B0936202BF91AF919F918F91A7
:100C30003F912F910F900FBE0F901F901895CF925C
:100C4000DF92EF92FF92E9EEF4E01382128288EED7
:100C5000C82E83E0D82EE12CF12CC482D582E68206
:100C6000F78264E072E07183608385EA94E095879F
:100C7000848781E694E09787868785EC90E0918B66
:100C8000808B84EC90E0938B828B80EC90E0958B52
:100C9000848B81EC90E0978B868B82EC90E0918F37
:100CA000808F86EC90E0938F828F44E0448F33E016
:100CB000358F27E0268F95E0978F81E080A3EFE3C3
:100CC000F4E013821282C482D582E682F7827183B5
:100CD0006083ABEFB3E0B587A487A7EBB3E0B7873A
:100CE000A687ADECB0E0B18BA08BACECB0E0B38BE1
:100CF000A28BA8ECB0E0B58BA48BA9ECB0E0B78BCD
:100D0000A68BAAECB0E0B18FA08FAEECB0E0B38FB1
:100D1000A28F448F358F268F978F80A3E5E9F3E06C
:100D200013821282C482D582E682F7827183608345
:100D3000A1E5B3E0B587A487ADE0B3E0B787A687A8
:100D4000A5EDB0E0B18BA08BA4EDB0E0B38BA28B8E
:100D5000A0EDB0E0B58BA48BA1EDB0E0B78BA68B76
:100D6000A2EDB0E0B18FA08FA6EDB0E0B38FA28F5F
:100D7000448F358F268F978F80A3EBEEF2E013829E
:100D80001282C482D582E682F7827183608367EA29
:100D900072E07587648763E672E07787668765E34C
:100DA00071E0718B608B64E371E0738B628B60E345
:100DB00071E0758B648B61E371E0778B668B62E326
:100DC00071E0718F608F66E371E0738F628F448F83
:100DD000358F268F978F80A3FF90EF90DF90CF9075
:100DE00008958F929F92AF92BF92CF92DF92EF922F
:100DF000FF920F931F93CF93DF93789484B5826013
:100E000084BD84B5816084BD85B5826085BD85B5AE
:100E1000816085BD80916E00816080936E0010922C
:100E200081008091810082608093810080918100A7
:100E30008160809381008091800081608093800038
:100E40008091B10084608093B1008091B000816096
:100E50008093B00080919100826080939100809196
:100E600091008160809391008091900081608093D7
:100E700090008091A10082608093A1008091A100E8
:100E800081608093A1008091A00081608093A00088
:100E900080912101826080932101809121018160F4
:100EA00080932101809120018160809320018091B5
:100EB0007A00846080937A0080917A0082608093C7
:100EC0007A0080917A00816080937A0080917A0024
:100ED000806880937A001092C100E091FD04F09147
:100EE000FE0481E090E09C010090090502C0220F01
:100EF000331F0A94E2F72083E091F904F091FA0499
:100F00001082E091FB04F091FC042FEC20831092FE
:100F10000A05E091FF04F091000540819C010090DA
:100F2000050502C0220F331F0A94E2F7242B208309
:100F3000E091FF04F091000540819C0100900605BE
:100F400002C0220F331F0A94E2F7242B2083E09182
:100F5000FF04F091000540819C010090070502C04C
:100F6000220F331F0A94E2F7242B2083E091FF0421
:100F7000F091000520810090080502C0880F991F9C
:100F80000A94E2F780958223808380E192E00E94B8
:100F900061038FE090E00E94BB034B015C010E9463
:100FA0006D038CE192E00E94610380E190E00E9479
:100FB000BB036B017C010E946D0388E292E00E94FA
:100FC0006103A5019401C701B6010E949D090E9419
:100FD0006D0384E392E00E946103A5019401215016
:100FE000310941095109C701B601615071098109EF
:100FF00091090E949D098B01D82FC92F0E946D0372
:1010000082E492E00E9461038FE090E00E94C502BA
:101010004B015C016801ED2EFC2EC501B401C11429
:10102000D104E104F10479F0A70196010E94AD0911
:10103000562F472F382F292FC701B601C52ED42E82
:10104000E32EF22EECCF613071058105910531F070
:101050008FEF881A980AA80AB80ADCCFC501B40134
:101060000E946D0398014D2F5C2FC501B4010E94B1
:10107000C7016B017C018EE492E00E946103C7010D
:10108000B6010E946D0389EE94E00E94080180E0A1
:1010900090E0DF91CF911F910F91FF90EF90DF9043
:1010A000CF90BF90AF909F908F900895F8940C943C
:1010B000F1090E9460086894B1110C9447090895E1
:1010C0000E94140988F09F5798F0B92F9927B751BB
:1010D000B0F0E1F0660F771F881F991F1AF0BA95DC
:1010E000C9F714C0B13091F00E944609B1E00895EB
:1010F0000C944609672F782F8827B85F39F0B93FDD
:10110000CCF3869577956795B395D9F73EF490958E
:101110008095709561957F4F8F4F9F4F0895E8940C
:1011200009C097FB3EF490958095709561957F4F2F
:101130008F4F9F4F9923A9F0F92F96E9BB279395DD
:10114000F695879577956795B795F111F8CFFAF4ED
:10115000BB0F11F460FF1BC06F5F7F4F8F4F9F4F1E
:1011600016C0882311F096E911C0772321F09EE87C
:10117000872F762F05C0662371F096E8862F70E0E2
:1011800060E02AF09A95660F771F881FDAF7880FBC
:101190009695879597F908950E942E0990F09F37AC
:1011A00048F4911116F00C94470960E070E080E873
:1011B0009FEB089526F41B16611D711D811D0C9473
:1011C000E3080C94FE08882371F4772321F09850EB
:1011D000872B762F07C0662311F499270DC09051F5
:1011E000862B70E060E02AF09A95660F771F881FC3
:1011F000DAF7880F9695879597F908959F3F31F014
:10120000915020F4879577956795B795880F911D34
:101210009695879597F9089557FD9058440F551F57
:1012200059F05F3F71F04795880F97FB991F61F068
:101230009F3F79F087950895121613061406551FDF
:10124000F2CF4695F1DF08C0161617061806991F4B
:10125000F1CF869571056105089408950E941409DF
:10126000A0F0BEE7B91788F4BB279F3860F41616C4
:10127000B11D672F782F8827985FF7CF86957795D0
:101280006795B11D93959639C8F30895E894BB27E7
:1012900066277727CB0197F9089519F416F40C9473
:1012A00093090C94FE080E941409B8F39923C9F31A
:1012B000B6F39F57550B87FF0E9496090024A0E6BE
:1012C00040EA900180585695979528F4805C660F07
:1012D000771F881F20F026173707480730F4621B56
:1012E000730B840B202931294A2BA6951794079458
:1012F000202531254A2758F7660F771F881F20F0D1
:1013000026173707480730F4620B730B840B200D48
:10131000311D411DA09581F7B901842F9158880F87
:101320009695879508959FEF80EC089591505040D1
:10133000660F771F881FD2F70895DB018F939F9365
:101340000E94CF09BF91AF91A29F800D911DA39FD5
:10135000900DB29F900D11240895A1E21A2EAA1BA0
:10136000BB1BFD010DC0AA1FBB1FEE1FFF1FA21755
:10137000B307E407F50720F0A21BB30BE40BF50B52
:10138000661F771F881F991F1A9469F760957095DB
:10139000809590959B01AC01BD01CF0108950E94FD
:1013A000E209A59F900DB49F900DA49F800D911D03
:1013B00011240895EE0FFF1F881F8BBF0790F69131
:1013C000E02D1994A29FB001B39FC001A39F700D9F
:1013D000811D1124911DB29F700D811D1124911D3D
:0613E0000895F894FFCF10
:1013E60000000000B4007A014F0113013301080127
:1013F6005468697320697320703A200054686973D1
:1014060020697320713A200054686973206973203B
:101416006E3A200054686973206973207068693ACF
:1014260020005468697320697320653A2000546867
:0A143600697320697320643A2000F6
:00000001FF
