:100000000C9442010C9473010C9473010C947301D1
:100010000C9473010C9473010C9473010C94730190
:100020000C9473010C9473010C9473010C94730180
:100030000C9473010C9473010C9473010C94730170
:100040000C9473010C9473010C9473010C94730160
:100050000C9473010C9473010C9473010C94490873
:100060000C9473010C9416080C943E070C947301C5
:100070000C9473010C9473010C9473010C94730130
:100080000C9473010C9473010C9473010C94730120
:100090000C94E3070C94FF060C9473010C94730109
:1000A0000C9473010C9473010C9473010C94730100
:1000B0000C9473010C9473010C9473010C947301F0
:1000C0000C9473010C9473010C9473010C94B0079D
:1000D0000C94C0060C9473010C947D070C9481065B
:1000E0000C947301330A360A290A2D0A6D0A3A0A5A
:1000F0003E0A440A480A4C0A520A560A5A0A6D0A2B
:10010000600A640A680A0C94680A0C94FF010C9453
:1001100093080C945A0A0C94520A0C94290A0C94D1
:10012000BB010C94600A0C942D0A0C94640A0C9484
:1001300046020C94440A0C9471020C946D0A0C94BF
:10014000560A0C943A0A0C943E0A0C944C0A0C94ED
:100150002A020C94330A0C940A020C94480A0C9458
:10016000360A00002200250028002B002E00310056
:10017000340002010000050108010B01000021000C
:10018000240027002A002D00300033000101000068
:10019000040107010A0100002000230026002900B5
:1001A0002C002F00320000010000030106010901AC
:1001B00005050505070508080808020202020A0AE3
:1001C0000808040404040101010101010101030301
:1001D000030303030303040707070C0C0C0C0C0CAC
:1001E0000C0C0202020206060606060606060B0BA9
:1001F0000B0B0B0B0B0B01021020200808102040EA
:1002000010204080020102010804020101020408DA
:100210001020408080402010080402018004020168
:1002200080402010080402010804020101020408B1
:100230001020408001020408102040800000090ABC
:1002400002080B0C0D07060304010000000000006B
:10025000000000000000000000000000000000009E
:10026000000000000000000011100F00000000005E
:10027000000000000000000000000000000000007E
:100280000000930811241FBECFEFD1E2DEBFCDBF27
:1002900000E00CBF12E0A0E0B2E0E8E3FCE100E027
:1002A0000BBF02C007900D92A435B107D9F725E026
:1002B000A4E5B2E001C01D92A530B207E1F711E05C
:1002C000C2E4D1E000E006C021970109802FFE01C1
:1002D0000E94F80DC134D10780E00807A9F70E94F9
:1002E00065090C94600C0C940000FC01A489B5898C
:1002F00081E090E09C0100A002C0220F331F0A940D
:10030000E2F72C93A089B1891C92A289B3892FECC2
:100310002C9311A2A689B7894C919C01048C02C030
:10032000220F331F0A94E2F7242B2C93A689B78956
:100330004C919C01058C02C0220F331F0A94E2F7F6
:10034000242B2C93A689B7894C919C01068C02C062
:10035000220F331F0A94E2F7242B2C93A689B78926
:100360002C91078C02C0880F991F0A94E2F78095A0
:1003700082238C9308950F931F93CF93DF93FC01F7
:10038000A685B7858D01005C1F4FE80188819981A2
:1003900001968F739927AD014E5B5F4FEA0128816B
:1003A000398128173907D1F3E80128813981A20F53
:1003B000B31F6C93A685B785A05CBF4F11969C9325
:1003C0008E93A689B7892C9181E090E0078C02C0BA
:1003D000880F991F0A94E2F7822B8C9381E081A306
:1003E0000488F589E02D80818064808381E090E03D
:1003F000DF91CF911F910F9108950C94BB01FC01E7
:1004000081A1882329F0A489B5898C9186FFFBCF2F
:1004100011A20895FC01A485B585FD01E05CFF4FA4
:10042000208131813296808191812817390779F0B6
:1004300080819181A80FB91F8C91208131812F5F1C
:100440003F4F2F7333273183208390E008958FEF40
:100450009FEF0895DC011C96ED91FC911D97DF0143
:10046000A05CBF4F2D913C91119712968D919C915C
:1004700011972817390739F08D919C91E80FF91FD2
:10048000808190E008958FEF9FEF0895FC0124850F
:100490003585F901E05CFF4F8081918132962081A2
:1004A0003181821B930B8F7399270895FB01E05CC8
:1004B000FF4F20813181DB01AE5BBF4F4D915C91DD
:1004C0002F5F3F4F2F7333274217530741F040816F
:1004D0005181DB01A40FB51F8C93318320830895D4
:1004E0000895CF92DF92EF92FF920F931F93CF93D5
:1004F000DF936C01EB017B01E40EF51E00E010E0E0
:10050000CE15DF0561F06991D601ED91FC91019066
:10051000F081E02DC6011995080F191FF1CFC80110
:10052000DF91CF911F910F91FF90EF90DF90CF90CF
:1005300008953FB7F8948091550290915602A0918A
:100540005702B091580226B5A89B05C02F3F19F05D
:100550000196A11DB11D3FBFBA2FA92F982F882743
:10056000820F911DA11DB11DBC01CD0142E0660F9E
:10057000771F881F991F4A95D1F70895CF92DF9270
:10058000EF92FF92CF93DF936B017C010E9499025F
:10059000EB01C114D104E104F10479F00E94990245
:1005A0006C1B7D0B683E7340A0F381E0C81AD10834
:1005B000E108F108C851DC4FECCFDF91CF91FF90FB
:1005C000EF90DF90CF900895CF92DF92EF92FF925D
:1005D000CF93DF939FB7F894C090DF04D090E004EE
:1005E000E090E104F090E2049FBF98EEC90E93E022
:1005F000D91EE11CF11CC82FD0E083EE94E00E94CC
:1006000046028C179D07BCF42FB7F8948091DF0445
:100610009091E004A091E104B091E2042FBF8C1509
:100620009D05AE05BF0538F461E070E080E090E024
:100630000E94BE02E2CF83EE94E00E94460221E0D7
:100640008C179D070CF420E0822FDF91CF91FF9053
:10065000EF90DF90CF900895CF92DF92EF92FF92CC
:1006600083EE94E00E940A027C0183EE94E00E94F3
:100670000A026C0183EE94E00E940A02A601DD0CDE
:10068000660B770B762F652F542F4427092E000C0D
:10069000AA0BBB0BDC0199278827842B952BA62B53
:1006A000B72B6701FF0CEE08FF08C82AD92AEA2AEF
:1006B000FB2A83EE94E00E940A02092E000CAA0B8A
:1006C000BB0BB82FAA2799278827BC01CD016C291D
:1006D0007D298E299F29FF90EF90DF90CF9008957C
:1006E0001F93CF93DF93172FD82FC92F062E000CFF
:1006F000770B83EE94E00E94FD01612F110F770BC1
:1007000083EE94E00E94FD016D2FDD0F770B83EEE9
:1007100094E00E94FD016C2FCC0F770B83EE94E0E8
:10072000DF91CF911F910C94FD012F923F924F9238
:100730005F926F927F928F929F92AF92BF92CF9271
:10074000DF92EF92FF920F931F93CF93DF93CDB77A
:10075000DEB72C970FB6F894DEBF0FBECDBF2B01CE
:100760003C0129833A834B835C83812C912C540177
:10077000839429813A814B815C81211531054105A2
:10078000510509F4B3C020FF57C0C501B401A80149
:1007900097010E94B70D6D837E838F839887C30175
:1007A000B201A80197010E94B70D6B0189879A8752
:1007B000812C912C54011C861B8681E090E0A0E0E6
:1007C000B0E00B8404C0880F991FAA1FBB1F0A94B6
:1007D000D2F72D813E814F81588582239323A42314
:1007E000B523892B8A2B8B2B01F1B60189859A853C
:1007F000212C312C4B855C852416350661F0660F63
:10080000771F881F991FA80197010E94B70D5FEFFE
:10081000251A350AEFCF680D791D8A1D9B1DA80189
:1008200097010E94B70D4B015C018B859C85019659
:100830009C878B874F9709F6C301B201A8019701E6
:100840000E94B70D6D837E838F839887412C512C36
:1008500032011C861B8681E090E0A0E0B0E00B84B2
:1008600004C0880F991FAA1FBB1F0A94D2F72D81BD
:100870003E814F81588582239323A423B523892B5E
:100880008A2B8B2BF9F0CA01B901C12CD12C4B85D5
:100890005C85C416D50661F0660F771F881F991F07
:1008A000A80197010E94B70D5FEFC51AD50AEFCFD7
:1008B000640D751D861D971DA80197010E94B70D37
:1008C0002B013C018B859C8501969C878B874F97DC
:1008D00011F629813A814B815C8156954795379570
:1008E000279529833A834B835C8343CFC501B401A9
:1008F0002C960FB6F894DEBF0FBECDBFDF91CF911F
:100900001F910F91FF90EF90DF90CF90BF90AF902D
:100910009F908F907F906F905F904F903F902F901F
:1009200008952F923F924F925F926F927F928F9293
:100930009F92AF92BF92CF92DF92EF92FF920F936E
:100940001F93CF93DF93CDB7DEB7C654D1400FB618
:10095000F894DEBF0FBECDBF69017A0101E010E05F
:1009600020E030E0CF55DF4F088319832A833B8393
:10097000C15AD040CB55DF4F188219821A821B8290
:10098000C55AD04069837A838B839C83CD82DE8273
:10099000EF82F8868E010F5F1F4F9E012F553F4F4C
:1009A000190141E050E0CF5BDE4F59834883C154C9
:1009B000D140F80144805580668077801414150476
:1009C000160417040CF058C080809180A280B38078
:1009D000C501B401A30192010E94D90DCD5BDE4F88
:1009E000288339834A835B83C354D140CF5BDE4F76
:1009F00028813981C154D1402F5F3F4FCF5BDE4FFB
:100A000039832883C154D140A3019201CD5BDE4FCD
:100A1000688179818A819B81C354D1400E94A70D4E
:100A2000861A970AA80AB90AF80180869186A286D2
:100A3000B386F1016481758186819781CD5BDE4F3C
:100A4000288139814A815B81C354D1400E94A70D1E
:100A500080809180A280B380A5019401261B370B72
:100A6000480B590B20873187428753870C5F1F4FF4
:100A7000F4E02F0E311C9DCFCF5BDE4FE881F98172
:100A8000C154D1403197EE0FFF1FEE0FFF1F21EA37
:100A900030E02C0F3D1FE20FF31F80819181A28176
:100AA000B381B7FF12C080819181A281B381B7FF6A
:100AB00009C08C0D9D1DAE1DBF1D80839183A28337
:100AC000B383F1CFBC01CD0117C0BC01CD01C61667
:100AD000D706E806F90628F4A70196010E94B70D8B
:100AE0000BC0611571058105910529F06C157D0517
:100AF0008E059F0508F003C0462F372F282F642F3F
:100B0000732F822FCA5BDE4F0FB6F894DEBF0FBE85
:100B1000CDBFDF91CF911F910F91FF90EF90DF90AC
:100B2000CF90BF90AF909F908F907F906F905F908D
:100B30004F903F902F9008959F92AF92BF92CF9287
:100B4000DF92EF92FF920F931F93CF93DF93C0E05A
:100B5000D0E0C12CD12C76018C010150110981E427
:100B6000982EC017D1079CF580917B00877F8093DA
:100B70007B0090927C0080917A00806480937A0060
:100B800080917A0086FDFCCF809178009091790069
:100B900080FBAA24A0F8B12CC5010C2E02C0880F3E
:100BA000991F0A94E2F7092E000CAA0BBB0BC8266A
:100BB000D926EA26FB268DEB94E00E94FF016AE02D
:100BC00070E080E090E00E94BE022196CACF81E0F2
:100BD00090E0A0E0B0E004C0880F991FAA1FBB1FDF
:100BE0000A95D2F7BC01CD016C257D258E259F2568
:100BF000DF91CF911F910F91FF90EF90DF90CF90F9
:100C0000BF90AF909F9008950F931F93CF93DF9362
:100C1000009779F0FC0101900020E9F73197AF01CE
:100C2000481B590BBC018DEB94E00E9471028C01B2
:100C300002C000E010E06DE08DEB94E00E94BB018B
:100C4000EC016AE08DEB94E00E94BB01C00FD11F64
:100C50008C0F9D1FDF91CF911F910F9108958F925F
:100C60009F92AF92BF92CF92DF92EF92FF920F933B
:100C70001F93CF93DF936C01C6010E949C054B012B
:100C80005C010E94990C0E945D0D0E94D60C0E948E
:100C9000630C7B0100E010E0C2E0D0E0EC16FD0642
:100CA000FCF0C501B4019E010D2E000C440B550B48
:100CB0000E94B70D672B682B692B19F40F5F1F4F2C
:100CC0002196C501B4019E010D2E000C440B550B5D
:100CD0000E94B70D672B682B692B01F32196DECF9D
:100CE000012B51F6C501B401DF91CF911F910F91F6
:100CF000FF90EF90DF90CF90BF90AF909F908F903C
:100D000008951F920F920FB60F9211240BB60F92F7
:100D10002F933F938F939F93EF93FF93209199028B
:100D200030919A0280919B0290919C02281739077A
:100D300031F4809131018F7D8093310114C0E091B5
:100D40009B02F0919C02E75AFD4F208180919B020B
:100D500090919C0201968F73992790939C028093A7
:100D60009B0220933601FF91EF919F918F913F91CC
:100D70002F910F900BBE0F900FBE0F901F901895E4
:100D80001F920F920FB60F9211240BB60F922F9352
:100D90003F938F939F93EF93FF9320912103309183
:100DA000220380912303909124032817390731F4FB
:100DB0008091D1008F7D8093D10014C0E0912303F6
:100DC000F0912403EF51FD4F2081809123039091F6
:100DD000240301968F739927909324038093230310
:100DE0002093D600FF91EF919F918F913F912F918A
:100DF0000F900BBE0F900FBE0F901F9018951F9273
:100E00000F920FB60F9211240BB60F922F933F93B0
:100E10008F939F93EF93FF932091CB033091CC035B
:100E20008091CD039091CE032817390731F480913A
:100E3000C9008F7D8093C90014C0E091CD03F0916B
:100E4000CE03E557FC4F20818091CD039091CE03D6
:100E500001968F7399279093CE038093CD032093AF
:100E6000CE00FF91EF919F918F913F912F910F9025
:100E70000BBE0F900FBE0F901F9018951F920F92F0
:100E80000FB60F9211240BB60F922F933F938F93AF
:100E90009F93EF93FF932091750430917604809196
:100EA0007704909178042817390731F48091C100B4
:100EB0008F7D8093C10014C0E0917704F091780495
:100EC000EB5CFB4F20818091770490917804019630
:100ED0008F73992790937804809377042093C600AA
:100EE000FF91EF919F918F913F912F910F900BBEAA
:100EF0000F900FBE0F901F9018951F920F920FB674
:100F00000F9211240BB60F922F933F934F935F9341
:100F10006F937F938F939F93AF93BF93EF93FF93C1
:100F20008091300182FD07C0809136016DE972E049
:100F30000E94560202C080913601FF91EF91BF914D
:100F4000AF919F918F917F916F915F914F913F9161
:100F50002F910F900BBE0F900FBE0F901F90189502
:100F60001F920F920FB60F9211240BB60F922F9370
:100F70003F934F935F936F937F938F939F93AF9321
:100F8000BF93EF93FF938091D00082FD07C08091C3
:100F9000D60065E273E00E94560202C08091D6003E
:100FA000FF91EF91BF91AF919F918F917F916F9141
:100FB0005F914F913F912F910F900BBE0F900FBEFD
:100FC0000F901F9018951F920F920FB60F92112439
:100FD0000BB60F922F933F934F935F936F937F9333
:100FE0008F939F93AF93BF93EF93FF938091C8002C
:100FF00082FD07C08091CE006FEC73E00E94560224
:1010000002C08091CE00FF91EF91BF91AF919F916F
:101010008F917F916F915F914F913F912F910F90A1
:101020000BBE0F900FBE0F901F9018951F920F923E
:101030000FB60F9211240BB60F922F933F934F933D
:101040005F936F937F938F939F93AF93BF93EF9330
:10105000FF938091C00082FD07C08091C60069E7C0
:1010600074E00E94560202C08091C600FF91EF9189
:10107000BF91AF919F918F917F916F915F914F91B0
:101080003F912F910F900BBE0F900FBE0F901F90AE
:1010900018951F920F920FB60F9211242F933F9322
:1010A0008F939F93AF93BF938091DF049091E0045F
:1010B000A091E104B091E2043091540223E0230FA7
:1010C0002D3720F40196A11DB11D05C026E8230F80
:1010D0000296A11DB11D209354028093DF049093CA
:1010E000E004A093E104B093E20480915502909152
:1010F0005602A0915702B09158020196A11DB11D50
:101100008093550290935602A0935702B0935802D1
:10111000BF91AF919F918F913F912F910F900FBEF3
:101120000F901F901895CF92DF92EF92FF92EDEB08
:10113000F4E01382128288EEC82E83E0D82EE12CD0
:10114000F12CC482D582E682F78264E072E071837A
:10115000608389E794E09587848785E394E09787A7
:10116000868785EC90E0918B808B84EC90E0938B6C
:10117000828B80EC90E0958B848B81EC90E0978B58
:10118000868B82EC90E0918F808F86EC90E0938F3D
:10119000828F44E0448F33E0358F27E0268F95E03F
:1011A000978F81E080A3E3E1F4E013821282C4828E
:1011B000D582E682F78271836083AFECB3E0B587B6
:1011C000A487ABE8B3E0B787A687ADECB0E0B18BFE
:1011D000A08BACECB0E0B38BA28BA8ECB0E0B58BED
:1011E000A48BA9ECB0E0B78BA68BAAECB0E0B18FD2
:1011F000A08FAEECB0E0B38FA28F448F358F268FD7
:10120000978F80A3E9E6F3E013821282C482D5822D
:10121000E682F78271836083A5E2B3E0B587A48795
:10122000A1EEB2E0B787A687A5EDB0E0B18BA08BA9
:10123000A4EDB0E0B38BA28BA0EDB0E0B58BA48B96
:10124000A1EDB0E0B78BA68BA2EDB0E0B18FA08F7F
:10125000A6EDB0E0B38FA28F448F358F268F978F86
:1012600080A3E3EEF4E013821282C482D582E68288
:10127000F782718360836DE972E07587648769E541
:1012800072E07787668765E371E0718B608B64E35A
:1012900071E0738B628B60E371E0758B648B61E34B
:1012A00071E0778B668B62E371E0718F608F66E32C
:1012B00071E0738F628F448F358F268F978F80A355
:1012C000FF90EF90DF90CF900895CF93DF93CDB74D
:1012D000DEB72F970FB6F894DEBF0FBECDBF789460
:1012E00084B5826084BD84B5816084BD85B582602B
:1012F00085BD85B5816085BD80916E0081608093DC
:101300006E00109281008091810082608093810044
:101310008091810081608093810080918000816054
:10132000809380008091B10084608093B1008091AF
:10133000B00081608093B0008091910082608093C2
:101340009100809191008160809391008091900044
:101350008160809390008091A10082608093A100C1
:101360008091A10081608093A1008091A0008160A4
:101370008093A0008091210182608093210180915F
:1013800021018160809321018091200181608093FF
:10139000200180917A00846080937A0080917A00A5
:1013A000826080937A0080917A00816080937A00D5
:1013B00080917A00806880937A001092C1008DEB52
:1013C00094E00E94750183EE94E00E94750103E0B1
:1013D00012E0F8012491EDEBF1E084918823C9F04B
:1013E00090E0880F991FFC01E458FE4FA591B4913D
:1013F000FC01EE59FE4F459154913FB7F8949C91F2
:10140000822F809598239C93FA0190818923808371
:101410003FBF80E192E00E940406E9E4F2E084919B
:10142000F8010491EDEBF1E0F491F983FF2309F465
:1014300061C0882309F451C090E0FC013197E1318B
:10144000F10508F04AC08827EE58FF4F8F4F0C94E3
:10145000F80D809180008F7703C0809180008F7D90
:10146000809380003AC084B58F7702C084B58F7DA9
:1014700084BD33C08091B0008F7703C08091B000ED
:101480008F7D8093B00029C0809190008F7707C036
:10149000809190008F7D03C080919000877F809322
:1014A00090001BC08091A0008F7707C08091A000A2
:1014B0008F7D03C08091A000877F8093A0000DC026
:1014C000809120018F7707C0809120018F7D03C01C
:1014D00080912001877F809320019981E92FF0E09E
:1014E000EE0FFF1FEA56FE4FA591B4918C91082391
:1014F00009F05DC086E492E00E9404068FE090E06F
:101500000E942F062B013C0180E190E00E942F06F3
:101510004B015C01A30192010E94A70D69837A83AC
:101520008B839C832150310941095109C501B401C4
:1015300061507109810991090E94A70D8B0189876A
:101540009D838FE090E00E949C054B015C01280187
:1015500069847D80C501B4014114510461047104A2
:1015600079F0A30192010E94B70D562F472F382F13
:10157000292FC301B201452E542E632E722EECCFBB
:10158000613071058105910531F0FFEF8F1A9F0AD7
:10159000AF0ABF0ADCCF980149855D81C501B4015E
:1015A0000E94910469877A878B879C87C8C08DE4E5
:1015B00092E00E9404068FE090E00E942F064B010B
:1015C0005C0180E190E00E942F062B013C01A50107
:1015D00094010E94A70D69837A838B839C83215099
:1015E000310941095109C301B201615071098109F1
:1015F00091090E94A70D6D877987182F092F8FE019
:1016000090E00E949C054B015C014D845984612E41
:10161000702EC501B401411451046104710469F0D4
:10162000A30192010E94B70DAB01382F292FC301EE
:10163000B2012A01632E722EEECF61307105810551
:10164000910531F0EFEF8E1A9E0AAE0ABE0ADDCF89
:101650002D853985412F502FC501B4010E94910479
:1016600069877A878B879C871E861D868D859E85D8
:10167000892B91F581E00E94E4028823B9F383EE7F
:1016800094E00E940A028334910581F788E00E9469
:10169000E402882349F30E942C038B018F879D87E6
:1016A0000E942C036D837E838F83988761E470E0B2
:1016B00083EE94E00E94FD01C501B4010E94700315
:1016C00069817A818B819C810E9470034801AF847B
:1016D000BD8483E090E0EEC0ED85FE853197B1F2E8
:1016E000ED85FE85339789F481E00E94E40288232A
:1016F00009F4BACF83EE94E00E940A02833409F41D
:10170000D7C0813409F0B2CF50C08D859E85029735
:1017100009F0ACCF88E00E94E402882309F4A4CF4A
:101720000E942C034B015C010E942C036D837E837D
:101730008F839887E3E0F0E0FE87ED8797CF80E026
:1017400090E0892B81F463E470E083EE94E00E94E2
:10175000FD01C501B4010E94700369817A818B810A
:101760009C810E94700381E00E94E402882339F387
:1017700083EE94E00E940A028134910509F09DC035
:1017800088E00E94E4028823D1F20E942C034B01DE
:101790005C010E942C036D837E838F83988761E4B4
:1017A00070E083EE94E00E94FD0189E292E00E94E5
:1017B00004068DEB94E00E944602181619060CF000
:1017C00040C08DEB94E00E940A022C01990F66083C
:1017D0007708642D8DEB94E00E94BB01FDE04F166D
:1017E00051046104710409F541E050E064E472E0E1
:1017F0008DEB94E00E947102ED80FE800F811885D0
:10180000A50194016DE070E080E090E00E949503F6
:101810000E947003ED80FE800F811885A501940160
:101820006AE070E080E090E008C0ED80FE800F810B
:101830001885A5019401C301B2010E9495030E947D
:10184000700383EE94E00E94460204970CF4B1CF3B
:101850000E942C03E980FA800B811C8129853A853E
:101860004B855C850E9495036D307105810591055E
:10187000B9F46DE070E08DEB94E00E94FD010E94F0
:101880002C03E980FA800B811C8129853A854B85E0
:101890005C850E9495038DEB94E00E94BB0189CF8B
:1018A000062E000C770B8DEB94E00E94FD0181CF9A
:1018B00082E090E09E878D87D9CE81E090E041CF95
:1018C000F8940C941A0E0E946A0C6894B1110C944E
:1018D000510D08950E941E0D88F09F5798F0B92F62
:1018E0009927B751B0F0E1F0660F771F881F991F55
:1018F0001AF0BA95C9F714C0B13091F00E94500D9A
:10190000B1E008950C94500D672F782F8827B85FA9
:1019100039F0B93FCCF3869577956795B395D9F7AC
:101920003EF490958095709561957F4F8F4F9F4FB6
:101930000895E89409C097FB3EF4909580957095C2
:1019400061957F4F8F4F9F4F9923A9F0F92F96E90B
:10195000BB279395F695879577956795B795F11180
:10196000F8CFFAF4BB0F11F460FF1BC06F5F7F4F1D
:101970008F4F9F4F16C0882311F096E911C077232F
:1019800021F09EE8872F762F05C0662371F096E838
:10199000862F70E060E02AF09A95660F771F881F07
:1019A000DAF7880F9695879597F908950E94380D74
:1019B00090F09F3748F4911116F00C94510D60E0AF
:1019C00070E080E89FEB089526F41B16611D711DE1
:1019D000811D0C94ED0C0C94080D882371F4772371
:1019E00021F09850872B762F07C0662311F4992792
:1019F0000DC09051862B70E060E02AF09A95660F3A
:101A0000771F881FDAF7880F9695879597F90895BD
:101A10009F3F31F0915020F4879577956795B79562
:101A2000880F911D9695879597F9089557FD9058C1
:101A3000440F551F59F05F3F71F04795880F97FB92
:101A4000991F61F09F3F79F087950895121613064C
:101A50001406551FF2CF4695F1DF08C0161617067B
:101A60001806991FF1CF86957105610508940895B0
:101A70000E941E0DA0F0BEE7B91788F4BB279F385F
:101A800060F41616B11D672F782F8827985FF7CF5F
:101A9000869577956795B11D93959639C8F3089506
:101AA000E894BB2766277727CB0197F9089519F4A7
:101AB00016F40C949D0D0C94080D0E941E0DB8F3A5
:101AC0009923C9F3B6F39F57550B87FF0E94A00DCA
:101AD0000024A0E640EA900180585695979528F496
:101AE000805C660F771F881F20F02617370748078E
:101AF00030F4621B730B840B202931294A2BA695E5
:101B000017940794202531254A2758F7660F771F29
:101B1000881F20F026173707480730F4620B730B35
:101B2000840B200D311D411DA09581F7B901842F33
:101B30009158880F9695879508959FEF80EC0895AA
:101B400091505040660F771F881FD2F70895DB0130
:101B50008F939F930E94000EBF91AF91A29F800D23
:101B6000911DA39F900DB29F900D11240895A1E2A5
:101B70001A2EAA1BBB1BFD010DC0AA1FBB1FEE1F07
:101B8000FF1FA217B307E407F50720F0A21BB30B52
:101B9000E40BF50B661F771F881F991F1A9469F7CE
:101BA00060957095809590959B01AC01BD01CF012A
:101BB0000895052E97FB1EF400940E94F00D57FD2A
:101BC00007D00E94B70D07FC03D04EF40C94F00D23
:101BD00050954095309521953F4F4F4F5F4F089559
:101BE00090958095709561957F4F8F4F9F4F089589
:101BF000EE0FFF1F881F8BBF0790F691E02D199401
:101C00000E940B0EA59F900DB49F900DA49F800D78
:101C1000911D11240895A29FB001B39FC001A39FFD
:101C2000700D811D1124911DB29F700D811D112415
:081C3000911D0895F894FFCF07
:101C380000000000BB01710246020A022A02FF01ED
:101C4800434F4E4E454354494E4720746F206172AE
:101C58006475696E6F2E2E2E00434F4E4E454354C9
:101C6800454420456E6A6F79204368617474696ED3
:101C7800673A20000A00436C69656E740053657208
:041C8800766572000B
:00000001FF
