:100000000C9442010C9473010C9473010C947301D1
:100010000C9473010C9473010C9473010C94730190
:100020000C9473010C9473010C9473010C94730180
:100030000C9473010C9473010C9473010C94730170
:100040000C9473010C9473010C9473010C94730160
:100050000C9473010C9473010C9473010C948C0830
:100060000C9473010C9459080C9481070C9473013F
:100070000C9473010C9473010C9473010C94730130
:100080000C9473010C9473010C9473010C94730120
:100090000C9426080C9442070C9473010C94730181
:1000A0000C9473010C9473010C9473010C94730100
:1000B0000C9473010C9473010C9473010C947301F0
:1000C0000C9473010C9473010C9473010C94F3075A
:1000D0000C9403070C9473010C94C0070C94C40691
:1000E0000C947301760A790A6C0A700AB00A7D0AC8
:1000F000810A870A8B0A8F0A950A990A9D0AB00A13
:10010000A30AA70AAB0A0C94AB0A0C94D6080C9469
:100110003C020C949D0A0C94950A0C946C0A0C9465
:10012000BB010C94A30A0C94700A0C94A70A0C94BB
:10013000870A0C94B00A0C94990A0C947D0A0C94CA
:10014000810A0C948F0A0C9411020C9483020C9473
:10015000760A0C948B0A0C941C020C9458020C9492
:10016000790A00002200250028002B002E00310013
:10017000340002010000050108010B01000021000C
:10018000240027002A002D00300033000101000068
:10019000040107010A0100002000230026002900B5
:1001A0002C002F00320000010000030106010901AC
:1001B00005050505070508080808020202020A0AE3
:1001C0000808040404040101010101010101030301
:1001D000030303030303040707070C0C0C0C0C0CAC
:1001E0000C0C0202020206060606060606060B0BA9
:1001F0000B0B0B0B0B0B01021020200808102040EA
:1002000010204080020102010804020101020408DA
:100210001020408080402010080402018004020168
:1002200080402010080402010804020101020408B1
:100230001020408001020408102040800000090ABC
:1002400002080B0C0D07060304010000000000006B
:10025000000000000000000000000000000000009E
:10026000000000000000000011100F00000000005E
:10027000000000000000000000000000000000007E
:100280000000D60811241FBECFEFD1E2DEBFCDBFE4
:1002900000E00CBF12E0A0E0B2E0EEE3FDE100E020
:1002A0000BBF02C007900D92A838B107D9F725E01F
:1002B000A8E8B2E001C01D92A933B207E1F711E04E
:1002C000C2E4D1E000E006C021970109802FFE01C1
:1002D0000E947B0EC134D10780E00807A9F70E9475
:1002E000A8090C94020D0C940000FC01A489B589A6
:1002F00081E090E09C0100A002C0220F331F0A940D
:10030000E2F72C93A089B1891C92A289B3892FECC2
:100310002C9311A2A689B7894C919C01048C02C030
:10032000220F331F0A94E2F7242B2C93A689B78956
:100330004C919C01058C02C0220F331F0A94E2F7F6
:10034000242B2C93A689B7894C919C01068C02C062
:10035000220F331F0A94E2F7242B2C93A689B78926
:100360002C91078C02C0880F991F0A94E2F78095A0
:1003700082238C9308950F931F93CF93DF93FC01F7
:10038000A685B7858D01005C1F4FE80188819981A2
:1003900001968F739927AD014E5B5F4FEA0128816B
:1003A000398128173907D1F3E80128813981A20F53
:1003B000B31F6C93A685B785A05CBF4F11969C9325
:1003C0008E93A689B7892C9181E090E0078C02C0BA
:1003D000880F991F0A94E2F7822B8C9381E081A306
:1003E0000488F589E02D80818064808381E090E03D
:1003F000DF91CF911F910F9108950C94BB01CF9382
:10040000DF936DE087E195E00E94BB01EC016AE0BB
:1004100087E195E00E94BB018C0F9D1FDF91CF917A
:100420000895FC0181A1882329F0A489B5898C91C4
:1004300086FFFBCF11A20895FC01A485B585FD01BF
:10044000E05CFF4F208131813296808191812817B5
:10045000390779F080819181A80FB91F8C91208193
:1004600031812F5F3F4F2F7333273183208390E0FB
:1004700008958FEF9FEF0895DC011C96ED91FC919C
:100480001D97DF01A05CBF4F2D913C9111971296F3
:100490008D919C9111972817390739F08D919C9176
:1004A000E80FF91F808190E008958FEF9FEF089586
:1004B000FC0124853585F901E05CFF4F8081918145
:1004C000329620813181821B930B8F739927089577
:1004D000FB01E05CFF4F20813181DB01AE5BBF4F50
:1004E0004D915C912F5F3F4F2F7333274217530776
:1004F00041F040815181DB01A40FB51F8C93318302
:10050000208308950895CF92DF92EF92FF920F9388
:100510001F93CF93DF936C01EB017B01E40EF51E7B
:1005200000E010E0CE15DF0561F06991D601ED9194
:10053000FC910190F081E02DC6011995080F191F5B
:10054000F1CFC801DF91CF911F910F91FF90EF90F4
:10055000DF90CF9008953FB7F894809189029091F1
:100560008A02A0918B02B0918C0226B5A89B05C08F
:100570002F3F19F00196A11DB11D3FBFBA2FA92F22
:10058000982F8827820F911DA11DB11DBC01CD019F
:1005900042E0660F771F881F991F4A95D1F708958B
:1005A000CF92DF92EF92FF92CF93DF936B017C01AA
:1005B0000E94AB02EB01C114D104E104F10479F013
:1005C0000E94AB026C1B7D0B683E7340A0F381E080
:1005D000C81AD108E108F108C851DC4FECCFDF910F
:1005E000CF91FF90EF90DF90CF900895CF92DF9260
:1005F000EF92FF92CF93DF939FB7F894C090F104EE
:10060000D090F204E090F304F090F4049FBF98EED1
:10061000C90E93E0D91EE11CF11CC82FD0E085EF74
:1006200094E00E9458028C179D07BCF42FB7F894F1
:100630008091F1049091F204A091F304B091F4043C
:100640002FBF8C159D05AE05BF0538F461E070E045
:1006500080E090E00E94D002E2CF85EF94E00E941B
:10066000580221E08C179D070CF420E0822FDF91C7
:10067000CF91FF90EF90DF90CF900895CF92DF92CF
:10068000EF92FF9285EF94E00E941C027C0185EFBF
:1006900094E00E941C026C0185EF94E00E941C0211
:1006A000A601DD0C660B770B762F652F542F4427A0
:1006B000092E000CAA0BBB0BDC0199278827842B81
:1006C000952BA62BB72B6701FF0CEE08FF08C82A55
:1006D000D92AEA2AFB2A85EF94E00E941C02092EFF
:1006E000000CAA0BBB0BB82FAA2799278827BC019F
:1006F000CD016C297D298E299F29FF90EF90DF90F5
:10070000CF9008951F93CF93DF93172FD82FC92F22
:10071000062E000C770B85EF94E00E94FD01612FFF
:10072000110F770B85EF94E00E94FD016D2FDD0F17
:10073000770B85EF94E00E94FD016C2FCC0F770BB7
:1007400085EF94E0DF91CF911F910C94FD012F92E2
:100750003F924F925F926F927F928F929F92AF9251
:10076000BF92CF92DF92EF92FF920F931F93CF939E
:10077000DF93CDB7DEB72C970FB6F894DEBF0FBE70
:10078000CDBF2B013C0129833A834B835C83812CB1
:10079000912C5401839429813A814B815C812115EC
:1007A00031054105510509F4B3C020FF57C0C5010B
:1007B000B401A80197010E94590E6D837E838F8337
:1007C0009887C301B201A80197010E94590E6B01DD
:1007D00089879A87812C912C54011C861B8681E085
:1007E00090E0A0E0B0E00B8404C0880F991FAA1F1E
:1007F000BB1F0A94D2F72D813E814F8158858223F9
:100800009323A423B523892B8A2B8B2B01F1B601CB
:1008100089859A85212C312C4B855C8524163506DB
:1008200061F0660F771F881F991FA80197010E942A
:10083000590E5FEF251A350AEFCF680D791D8A1D15
:100840009B1DA80197010E94590E4B015C018B85ED
:100850009C8501969C878B874F9709F6C301B2014F
:10086000A80197010E94590E6D837E838F8398871C
:10087000412C512C32011C861B8681E090E0A0E0C7
:10088000B0E00B8404C0880F991FAA1FBB1F0A94F5
:10089000D2F72D813E814F81588582239323A42353
:1008A000B523892B8A2B8B2BF9F0CA01B901C12CF6
:1008B000D12C4B855C85C416D50661F0660F771F79
:1008C000881F991FA80197010E94590E5FEFC51A52
:1008D000D50AEFCF640D751D861D971DA8019701E0
:1008E0000E94590E2B013C018B859C8501969C87AB
:1008F0008B874F9711F629813A814B815C81569500
:1009000047953795279529833A834B835C8343CF5B
:10091000C501B4012C960FB6F894DEBF0FBECDBF53
:10092000DF91CF911F910F91FF90EF90DF90CF90CB
:10093000BF90AF909F908F907F906F905F904F90FF
:100940003F902F9008952F923F924F925F926F9217
:100950007F928F929F92AF92BF92CF92DF92EF924F
:10096000FF920F931F93CF93DF93CDB7DEB7C6549B
:10097000D1400FB6F894DEBF0FBECDBF69017A013A
:1009800001E010E020E030E0CF55DF4F088319830D
:100990002A833B83C15AD040CB55DF4F188219823E
:1009A0001A821B82C55AD04069837A838B839C83C9
:1009B000CD82DE82EF82F8868E010F5F1F4F9E018F
:1009C0002F553F4F190141E050E0CF5BDE4F598377
:1009D0004883C154D140F8014480558066807780B7
:1009E000411451046104710409F458C0808091805D
:1009F000A280B380C501B401A30192010E94590EE7
:100A0000CD5BDE4F288339834A835B83C354D14057
:100A1000CF5BDE4F28813981C154D1402F5F3F4FDA
:100A2000CF5BDE4F39832883C154D140A3019201AB
:100A3000CD5BDE4F688179818A819B81C354D1402F
:100A40000E94490E861A970AA80AB90AF8018086F8
:100A50009186A286B386F101648175818681978132
:100A6000CD5BDE4F288139814A815B81C354D140FF
:100A70000E94490E80809180A280B380A5019401DC
:100A8000261B370B480B590B20873187428753872A
:100A90000C5F1F4FF4E02F0E311C9DCFCF5BDE4F5C
:100AA000E881F981C154D1403197EE0FFF1FEE0F5D
:100AB000FF1F21EA30E02C0F3D1FE20FF31F608182
:100AC000718182819381C616D706E806F90628F45B
:100AD000A70196010E94590E11C097FF09C0A701F6
:100AE00096010E94590E6C0D7D1D8E1D9F1D06C026
:100AF000C616D706E806F90609F403C0462F372FB5
:100B0000282F642F732F822FCA5BDE4F0FB6F89405
:100B1000DEBF0FBECDBFDF91CF911F910F91FF9030
:100B2000EF90DF90CF90BF90AF909F908F907F908D
:100B30006F905F904F903F902F9008959F92AF924B
:100B4000BF92CF92DF92EF92FF920F931F93CF93BA
:100B5000DF93C0E0D0E0C12CD12C76018C01015094
:100B6000110981E4982EC017D1079CF580917B0074
:100B7000877F80937B0090927C0080917A008064D4
:100B800080937A0080917A0086FDFCCF8091780076
:100B90009091790080FBAA24A0F8B12CC5010C2EFD
:100BA00002C0880F991F0A94E2F7092E000CAA0BC5
:100BB000BB0BC826D926EA26FB2687E195E00E94D2
:100BC00011026AE070E080E090E00E94D00221967D
:100BD000CACF81E090E0A0E0B0E004C0880F991F88
:100BE000AA1FBB1F0A95D2F7BC01CD016C257D253C
:100BF0008E259F25DF91CF911F910F91FF90EF9050
:100C0000DF90CF90BF90AF909F900895009769F0CC
:100C1000FC0101900020E9F73197AF01481B590B07
:100C2000BC0187E195E00C94830280E090E0089598
:100C3000CF93DF930E940606EC010E94FF018C0F08
:100C40009D1FDF91CF9108958F929F92AF92BF9297
:100C5000EF92FF921F93CF93DF93CDB7DEB7A197AB
:100C60000FB6F894DEBF0FBECDBF162F19A27E01BE
:100C700021E2E20EF11C2AE0822E912CA12CB12C53
:100C8000612FA50194010E94590E8AE0289F101936
:100C90001124E1E0EE1AF1081A3014F4105D01C0DD
:100CA000195CF7011083122F732FCA01232B242BF9
:100CB000252B31F7C7010E9406067C010E94FF0127
:100CC0008E0D9F1DA1960FB6F894DEBF0FBECDBF4F
:100CD000DF91CF911F91FF90EF90BF90AF909F90C9
:100CE0008F9008958F929F92AF92BF92CF92DF9292
:100CF000EF92FF920F931F93CF93DF936C01C60186
:100D00000E949E054B015C010E943B0D0E94FF0D5D
:100D10000E94780D0E94050D7B0100E010E0C2E00A
:100D2000D0E0EC16FD06FCF0C501B4019E010D2ECD
:100D3000000C440B550B0E94590E672B682B692B36
:100D400019F40F5F1F4F2196C501B4019E010D2EAE
:100D5000000C440B550B0E94590E672B682B692B16
:100D600001F32196DECF012B51F6C501B401DF91CD
:100D7000CF911F910F91FF90EF90DF90CF90BF9098
:100D8000AF909F908F9008951F920F920FB60F9281
:100D900011240BB60F922F933F938F939F93EF9352
:100DA000FF932091CD023091CE028091CF0290919D
:100DB000D0022817390731F4809131018F7D80935B
:100DC000310114C0E091CF02F091D002E357FD4F02
:100DD00020818091CF029091D00201968F73992744
:100DE0009093D0028093CF0220933601FF91EF9130
:100DF0009F918F913F912F910F900BBE0F900FBE3F
:100E00000F901F9018951F920F920FB60F921124FA
:100E10000BB60F922F933F938F939F93EF93FF9374
:100E200020915503309156038091570390915803B8
:100E30002817390731F48091D1008F7D8093D1003C
:100E400014C0E0915703F0915803EB5EFC4F2081F2
:100E5000809157039091580301968F73992790932F
:100E60005803809357032093D600FF91EF919F91F1
:100E70008F913F912F910F900BBE0F900FBE0F904F
:100E80001F9018951F920F920FB60F9211240BB658
:100E90000F922F933F938F939F93EF93FF93209104
:100EA000FF033091000480910104909102042817FF
:100EB000390731F48091C9008F7D8093C90014C037
:100EC000E0910104F0910204E154FC4F20818091F3
:100ED00001049091020401968F7399279093020464
:100EE000809301042093CE00FF91EF919F918F9109
:100EF0003F912F910F900BBE0F900FBE0F901F9040
:100F000018951F920F920FB60F9211240BB60F92E5
:100F10002F933F938F939F93EF93FF932091A90477
:100F20003091AA048091AB049091AC042817390742
:100F300031F48091C1008F7D8093C10014C0E09195
:100F4000AB04F091AC04E759FB4F20818091AB04D6
:100F50009091AC0401968F7399279093AC04809381
:100F6000AB042093C600FF91EF919F918F913F9129
:100F70002F910F900BBE0F900FBE0F901F901895E2
:100F80001F920F920FB60F9211240BB60F922F9350
:100F90003F934F935F936F937F938F939F93AF9301
:100FA000BF93EF93FF938091300182FD07C0809142
:100FB000360161ED72E00E94680202C08091360144
:100FC000FF91EF91BF91AF919F918F917F916F9121
:100FD0005F914F913F912F910F900BBE0F900FBEDD
:100FE0000F901F9018951F920F920FB60F92112419
:100FF0000BB60F922F933F934F935F936F937F9313
:101000008F939F93AF93BF93EF93FF938091D00003
:1010100082FD07C08091D60069E573E00E946802F6
:1010200002C08091D600FF91EF91BF91AF919F9147
:101030008F917F916F915F914F913F912F910F9081
:101040000BBE0F900FBE0F901F9018951F920F921E
:101050000FB60F9211240BB60F922F933F934F931D
:101060005F936F937F938F939F93AF93BF93EF9310
:10107000FF938091C80082FD07C08091CE0063E09D
:1010800074E00E94680202C08091CE00FF91EF914F
:10109000BF91AF919F918F917F916F915F914F9190
:1010A0003F912F910F900BBE0F900FBE0F901F908E
:1010B00018951F920F920FB60F9211240BB60F9234
:1010C0002F933F934F935F936F937F938F939F9350
:1010D000AF93BF93EF93FF938091C00082FD07C051
:1010E0008091C6006DEA74E00E94680202C080919F
:1010F000C600FF91EF91BF91AF919F918F917F912A
:101100006F915F914F913F912F910F900BBE0F9078
:101110000FBE0F901F9018951F920F920FB60F924F
:1011200011242F933F938F939F93AF93BF938091FD
:10113000F1049091F204A091F304B091F404309181
:10114000880223E0230F2D3720F40196A11DB11D45
:1011500005C026E8230F0296A11DB11D2093880229
:101160008093F1049093F204A093F304B093F404F9
:101170008091890290918A02A0918B02B0918C0299
:101180000196A11DB11D8093890290938A02A093BC
:101190008B02B0938C02BF91AF919F918F913F9141
:1011A0002F910F900FBE0F901F901895CF92DF9246
:1011B000EF92FF92E7E1F5E01382128288EEC82EEB
:1011C00083E0D82EE12CF12CC482D582E682F7820E
:1011D00064E072E0718360838DEA94E09587848790
:1011E00089E694E09787868785EC90E0918B808BE9
:1011F00084EC90E0938B828B80EC90E0958B848BD9
:1012000081EC90E0978B868B82EC90E0918F808FC1
:1012100086EC90E0938F828F44E0448F33E0358FEB
:1012200027E0268F95E0978F81E080A3E7E4F4E044
:1012300013821282C482D582E682F7827183608330
:10124000A3E0B4E0B587A487AFEBB3E0B787A68788
:10125000ADECB0E0B18BA08BACECB0E0B38BA28B6B
:10126000A8ECB0E0B58BA48BA9ECB0E0B78BA68B53
:10127000AAECB0E0B18FA08FAEECB0E0B38FA28F3C
:10128000448F358F268F978F80A3EDE9F3E013828B
:101290001282C482D582E682F78271836083A9E5D7
:1012A000B3E0B587A487A5E1B3E0B787A687A5ED2E
:1012B000B0E0B18BA08BA4EDB0E0B38BA28BA0ED1E
:1012C000B0E0B58BA48BA1EDB0E0B78BA68BA2EDFF
:1012D000B0E0B18FA08FA6EDB0E0B38FA28F448FA6
:1012E000358F268F978F80A3E5EFF4E0138212826B
:1012F000C482D582E682F7827183608361ED72E0F9
:10130000758764876DE872E07787668765E371E0CB
:10131000718B608B64E371E0738B628B60E371E0CF
:10132000758B648B61E371E0778B668B62E371E0B0
:10133000718F608F66E371E0738F628F448F358F9A
:10134000268F978F80A3FF90EF90DF90CF90089526
:10135000CF93DF93CDB7DEB72D970FB6F894DEBFEE
:101360000FBECDBF789484B5826084BD84B58160A2
:1013700084BD85B5826085BD85B5816085BD809160
:101380006E00816080936E001092810080918100D8
:1013900082608093810080918100816080938100D0
:1013A000809180008160809380008091B100846092
:1013B0008093B1008091B00081608093B0008091F3
:1013C0009100826080939100809191008160809370
:1013D0009100809190008160809390008091A100A5
:1013E00082608093A1008091A10081608093A10020
:1013F0008091A00081608093A00080912101826093
:10140000809321018091210181608093210180914D
:10141000200181608093200180917A008460809314
:101420007A0080917A00826080937A0080917A00BD
:10143000816080937A0080917A00806880937A003E
:101440001092C10087E195E00E94750185EF94E05C
:101450000E94750103E012E0F8012491EDEBF1E048
:1014600084918823C9F090E0880F991FFC01E4580B
:10147000FE4FA591B491FC01EE59FE4F4591549158
:101480003FB7F8949C91822F809598239C93DA0122
:101490009C9189238C933FBF80E192E00E941806C3
:1014A000E9E4F2E08491F8010491EDEBF1E0F491CC
:1014B000F983FF2309F461C0882309F451C090E047
:1014C000FC013197E131F10508F04AC08827EE5858
:1014D000FF4F8F4F0C947B0E809180008F7703C05D
:1014E000809180008F7D809380003AC084B58F7793
:1014F00002C084B58F7D84BD33C08091B0008F77EA
:1015000003C08091B0008F7D8093B00029C080918E
:1015100090008F7707C0809190008F7D03C08091ED
:101520009000877F809390001BC08091A0008F77F0
:1015300007C08091A0008F7D03C08091A000877FAD
:101540008093A0000DC0809120018F7707C080910B
:1015500020018F7D03C080912001877F809320012F
:101560002981E22FF0E0EE0FFF1FEA56FE4FA59112
:10157000B4918C91082309F078C089E792E00E9429
:1015800018068FE090E00E9472062B013C0180E17A
:1015900090E00E9472064B015C01A30192010E943F
:1015A000490E69837A838B839C83215031094109D9
:1015B0005109C501B40161507109810991090E9465
:1015C000490E8B0189879D838FE090E00E949E05E4
:1015D0004B015C01280169847D80C501B40141147F
:1015E00051046104710479F0A30192010E94590E23
:1015F000562F472F382F292FC301B201452E542EC5
:10160000632E722EECCF613071058105910531F0AA
:101610004FEF841A940AA40AB40ADCCFC501B401BE
:101620000E942406980149855D81C501B4010E948C
:10163000A3042B013C018EE192E00E940606C30147
:10164000B2010E9424068AE292E00E940606C501C9
:10165000B4010E94240686E392E00E940606B801C7
:1016600089859D810E942406E8C080E892E00E945E
:1016700018068FE090E00E9472064B015C0180E149
:1016800090E00E9472062B013C01A50194010E948A
:10169000490E69837A838B839C83215031094109E8
:1016A0005109C301B20161507109810991090E9478
:1016B000490E6D877987182F092F8FE090E00E94DF
:1016C0009E054B015C014D845984612E702EC5012D
:1016D000B401411451046104710469F0A301920141
:1016E0000E94590EAB01382F292FC301B2012A01E4
:1016F000632E722EEECF613071058105910531F0B8
:101700003FEF831A930AA30AB30ADDCFC501B401E0
:101710000E9424062D853985412F502FC501B40123
:101720000E94A3042B013C018EE192E00E94060678
:10173000C301B2010E9424068AE292E00E940606DA
:10174000C501B4010E94240686E392E00E940606C9
:101750006D857985812F902F0E9424061A8619861F
:1017600089859A85892BA1F581E00E94F60288235C
:10177000B9F385EF94E00E941C028334910581F750
:1017800088E00E94F602882349F30E943E038B0101
:101790008D8799870E943E036D837E838F83988710
:1017A00061E470E085EF94E00E94FD01C501B401A1
:1017B0000E94820369817A818B819C810E948203CD
:1017C0004801AD84B984E3E0F0E0FA87E987C8CF47
:1017D000A985BA851197A1F229853A85233031056B
:1017E00089F481E00E94F602882309F4B7CF85EFDF
:1017F00094E00E941C02833409F4FCC0813409F097
:10180000AFCF51C049855A854230510509F0A8CF64
:1018100088E00E94F602882309F4A0CF0E943E03CC
:101820004B015C010E943E036D837E838F8398870A
:1018300083E090E09A87898793CF80E090E0892BBE
:1018400081F463E470E085EF94E00E94FD01C5013E
:10185000B4010E94820369817A818B819C810E94FC
:10186000820381E00E94F602882339F385EF94E039
:101870000E941C028134910509F0C1C088E00E94D9
:10188000F6028823D1F20E943E034B015C010E94C4
:101890003E036D837E838F83988761E470E085EFDC
:1018A00094E00E94FD0184E492E00E9418068EE11B
:1018B00092E00E941806C301B2010E9424068FE53F
:1018C00092E00E94180669817A818B819C810E9436
:1018D00024068AE292E00E941806C501B4010E9423
:1018E00024068BE692E00E9418066D817E818F812E
:1018F00098850E94240687E195E00E9458021816F8
:1019000019060CF044C087E195E00E941C029C017E
:10191000990F440B550B29873A874B875C8769855C
:1019200087E195E00E94BB0189859A85AB85BC85DE
:101930000D97A105B105E9F487E792E00E9406063C
:10194000ED80FE800F811885A50194016DE070E0A7
:1019500080E090E00E94A7030E948203ED80FE8059
:101960000F811885A50194016AE070E080E090E0A5
:101970000AC0ED80FE800F811885A501940169855C
:101980007A858B859C850E94A7030E94820385EF40
:1019900094E00E94580204970CF4ADCF0E943E03DD
:1019A000E980FA800B811C81A30192010E94A703A8
:1019B0006D30710581059105A9F46DE070E087E156
:1019C00095E00E94FD010E943E03E980FA800B81B0
:1019D0001C81A30192010E94A70387E195E00E9468
:1019E000BB0189CF062E000C770B87E195E00E94A2
:1019F000FD0181CFA2E0B0E0BA87A987B1CE81E036
:101A000090E01DCFF8940C949D0E0E940C0D6894EC
:101A1000B1110C94F30D08950E94C00D88F09F57EA
:101A200098F0B92F9927B751B0F0E1F0660F771F02
:101A3000881F991F1AF0BA95C9F714C0B13091F0F8
:101A40000E94F20DB1E008950C94F20D672F782FEB
:101A50008827B85F39F0B93FCCF3869577956795BD
:101A6000B395D9F73EF490958095709561957F4F29
:101A70008F4F9F4F0895E89409C097FB3EF49095CF
:101A80008095709561957F4F8F4F9F4F9923A9F057
:101A9000F92F96E9BB279395F695879577956795E6
:101AA000B795F111F8CFFAF4BB0F11F460FF1BC02A
:101AB0006F5F7F4F8F4F9F4F16C0882311F096E9BD
:101AC00011C0772321F09EE8872F762F05C066236B
:101AD00071F096E8862F70E060E02AF09A95660F24
:101AE000771F881FDAF7880F9695879597F90895DD
:101AF0000E94DA0D90F09F3748F4911116F00C9483
:101B0000F30D60E070E080E89FEB089526F41B166B
:101B1000611D711D811D0C948F0D0C94AA0D8823DD
:101B200071F4772321F09850872B762F07C0662316
:101B300011F499270DC09051862B70E060E02AF0D7
:101B40009A95660F771F881FDAF7880F9695879505
:101B500097F908959F3F31F0915020F4879577953C
:101B60006795B795880F911D9695879597F9089574
:101B700057FD9058440F551F59F05F3F71F047953E
:101B8000880F97FB991F61F09F3F79F08795089523
:101B9000121613061406551FF2CF4695F1DF08C042
:101BA000161617061806991FF1CF8695710561055F
:101BB000089408950E94C00DA0F0BEE7B91788F4FC
:101BC000BB279F3860F41616B11D672F782F882722
:101BD000985FF7CF869577956795B11D9395963960
:101BE000C8F30895E894BB2766277727CB0197F9B8
:101BF000089519F416F40C943F0E0C94AA0D0E944B
:101C0000C00DB8F39923C9F3B6F39F57550B87FF5F
:101C10000E94420E0024A0E640EA900180585695AA
:101C2000979528F4805C660F771F881F20F0261791
:101C30003707480730F4621B730B840B20293129C6
:101C40004A2BA69517940794202531254A2758F743
:101C5000660F771F881F20F026173707480730F4D4
:101C6000620B730B840B200D311D411DA09581F774
:101C7000B901842F9158880F9695879508959FEF05
:101C800080EC089591505040660F771F881FD2F75F
:101C90000895DB018F939F930E94830EBF91AF91B4
:101CA000A29F800D911DA39F900DB29F900D1124B6
:101CB0000895A1E21A2EAA1BBB1BFD010DC0AA1F8D
:101CC000BB1FEE1FFF1FA217B307E407F50720F0A5
:101CD000A21BB30BE40BF50B661F771F881F991F20
:101CE0001A9469F760957095809590959B01AC0169
:101CF000BD01CF010895EE0FFF1F881F8BBF079016
:101D0000F691E02D19940E948E0EA59F900DB49F20
:101D1000900DA49F800D911D11240895A29FB001E4
:101D2000B39FC001A39F700D811D1124911DB29F0F
:0E1D3000700D811D1124911D0895F894FFCFB0
:101D3E0000000000BB01830258021C023C0211028B
:101D4E00436F6E6E656374696E672E2E2E00546837
:101D5E00697320697320643A20005468697320699E
:101D6E007320653A20005468697320697320706887
:101D7E00693A2000434F4E4E454354454420456E2C
:101D8E006A6F79204368617474696E673A200054F3
:101D9E00686973206973206E3A2000546869732055
:101DAE006973206D3A20000A00436C69656E7400F9
:081DBE005365727665720000A6
:00000001FF
