:100000000C9442010C9473010C9473010C947301D1
:100010000C9473010C9473010C9473010C94730190
:100020000C9473010C9473010C9473010C94730180
:100030000C9473010C9473010C9473010C94730170
:100040000C9473010C9473010C9473010C94730160
:100050000C9473010C9473010C9473010C94C605F9
:100060000C9473010C9493050C94BB040C947301D1
:100070000C9473010C9473010C9473010C94730130
:100080000C9473010C9473010C9473010C94730120
:100090000C9460050C947C040C9473010C94730113
:1000A0000C9473010C9473010C9473010C94730100
:1000B0000C9473010C9473010C9473010C947301F0
:1000C0000C9473010C9473010C9473010C942D0522
:1000D0000C943D040C9473010C94FA040C94FE03EC
:1000E0000C947301AE07B107A407A807E807B5078A
:1000F000B907BF07C307C707CD07D107D507E8076B
:10010000DB07DF07E3070C94E4010C94BF070C94B2
:10011000BC010C94C3070C9453020C94E3070C9499
:10012000B1070C94B5070C94C7070C94E8070C941E
:10013000CD070C9433020C94D1070C94AE070C94A9
:10014000DF070C94A8070C94D5070C94B9070C94FE
:1001500010060C9428020C946F020C94DB070C948C
:10016000A40700002200250028002B002E003100EB
:10017000340002010000050108010B01000021000C
:10018000240027002A002D00300033000101000068
:10019000040107010A0100002000230026002900B5
:1001A0002C002F00320000010000030106010901AC
:1001B00005050505070508080808020202020A0AE3
:1001C0000808040404040101010101010101030301
:1001D000030303030303040707070C0C0C0C0C0CAC
:1001E0000C0C0202020206060606060606060B0BA9
:1001F0000B0B0B0B0B0B01021020200808102040EA
:1002000010204080020102010804020101020408DA
:100210001020408080402010080402018004020168
:1002200080402010080402010804020101020408B1
:100230001020408001020408102040800000090ABC
:1002400002080B0C0D07060304010000000000006B
:10025000000000000000000000000000000000009E
:10026000000000000000000011100F00000000005E
:10027000000000000000000000000000000000007E
:100280000000100611241FBECFEFD1E2DEBFCDBFAC
:1002900000E00CBF12E0A0E0B2E0EEEAF1E100E025
:1002A0000BBF02C007900D92A231B107D9F724E02D
:1002B000A2E1B2E001C01D92A33CB207E1F711E058
:1002C000C2E4D1E000E006C021970109802FFE01C1
:1002D0000E94CD08C134D10780E00807A9F70E9429
:1002E000E2060C94A8080C940000FC01A489B589CE
:1002F00081E090E09C0100A002C0220F331F0A940D
:10030000E2F72C93A089B1891C92A289B3892FECC2
:100310002C9311A2A689B7894C919C01048C02C030
:10032000220F331F0A94E2F7242B2C93A689B78956
:100330004C919C01058C02C0220F331F0A94E2F7F6
:10034000242B2C93A689B7894C919C01068C02C062
:10035000220F331F0A94E2F7242B2C93A689B78926
:100360002C91078C02C0880F991F0A94E2F78095A0
:1003700082238C9308950895CF92DF92EF92FF929B
:100380000F931F93CF93DF936C01EB017B01E40E7E
:10039000F51E00E010E0CE15DF0561F06991D60191
:1003A000ED91FC910190F081E02DC6011995080FA7
:1003B000191FF1CFC801DF91CF911F910F91FF90CD
:1003C000EF90DF90CF9008950F931F93CF93DF931B
:1003D000FC01A685B7858D01005C1F4FE80188816F
:1003E000998101968F739927AD014E5B5F4FEA01AA
:1003F0002881398128173907D1F3E801288139810B
:10040000A20FB31F6C93A685B785A05CBF4F119652
:100410009C938E93A689B7892C9181E090E0078CFC
:1004200002C0880F991F0A94E2F7822B8C9381E017
:1004300081A30488F589E02D80818064808381E038
:1004400090E0DF91CF911F910F9108950C94E401FA
:10045000FC0181A1882329F0A489B5898C9186FFAC
:10046000FBCF11A20895FC01A485B585FD01E05CD8
:10047000FF4F208131813296808191812817390781
:1004800079F080819181A80FB91F8C9120813181F1
:100490002F5F3F4F2F7333273183208390E00895E0
:1004A0008FEF9FEF0895DC011C96ED91FC911D9755
:1004B000DF01A05CBF4F2D913C91119712968D9159
:1004C0009C9111972817390739F08D919C91E80F6D
:1004D000F91F808190E008958FEF9FEF0895FC0150
:1004E00024853585F901E05CFF4F8081918132964A
:1004F00020813181821B930B8F7399270895FB0113
:10050000E05CFF4F20813181DB01AE5BBF4F4D913D
:100510005C912F5F3F4F2F7333274217530741F0F2
:1005200040815181DB01A40FB51F8C93318320835F
:100530000895CF92DF92EF92FF9283EA92E00E94B9
:1005400033027C0183EA92E00E9433026C0183EA69
:1005500092E00E943302A601DD0C660B770B762F2A
:10056000652F542F4427092E000CAA0BBB0BDC016E
:1005700099278827842B952BA62BB72B6701FF0C77
:10058000EE08FF08C82AD92AEA2AFB2A83EA92E061
:100590000E943302092E000CAA0BBB0BB82FAA270E
:1005A00099278827BC01CD016C297D298E299F2997
:1005B000FF90EF90DF90CF9008951F93CF93DF933C
:1005C000172FD82FC92F062E000C770B83EA92E045
:1005D0000E942602612F110F770B83EA92E00E949E
:1005E00026026D2FDD0F770B83EA92E00E94260230
:1005F0006C2FCC0F770B83EA92E0DF91CF911F91A4
:100600000C9426022F923F924F925F926F927F92AC
:100610008F929F92AF92BF92CF92DF92EF92FF9212
:100620000F931F93CF93DF93CDB7DEB72C970FB601
:10063000F894DEBF0FBECDBF2B013C0129833A8366
:100640004B835C83812C912C5401839429813A81C2
:100650004B815C81211531054105510509F4B3C079
:1006600020FF57C0C501B401A80197010E94AB0843
:100670006D837E838F839887C301B201A8019701A0
:100680000E94AB086B0189879A87812C912C5401B9
:100690001C861B8681E090E0A0E0B0E00B8404C0E3
:1006A000880F991FAA1FBB1F0A94D2F72D813E8184
:1006B0004F81588582239323A423B523892B8A2B2A
:1006C0008B2B01F1B60189859A85212C312C4B8524
:1006D0005C852416350661F0660F771F881F991F09
:1006E000A80197010E94AB085FEF251A350AEFCFEA
:1006F000680D791D8A1D9B1DA80197010E94AB08FA
:100700004B015C018B859C8501969C878B874F975D
:1007100009F6C301B201A80197010E94AB086D83DD
:100720007E838F839887412C512C32011C861B8637
:1007300081E090E0A0E0B0E00B8404C0880F991F36
:10074000AA1FBB1F0A94D2F72D813E814F81588585
:1007500082239323A423B523892B8A2B8B2BF9F097
:10076000CA01B901C12CD12C4B855C85C416D506B4
:1007700061F0660F771F881F991FA80197010E94DB
:10078000AB085FEFC51AD50AEFCF640D751D861D46
:10079000971DA80197010E94AB082B013C018B8596
:1007A0009C8501969C878B874F9711F629813A810A
:1007B0004B815C81569547953795279529833A83D8
:1007C0004B835C8343CFC501B4012C960FB6F894DC
:1007D000DEBF0FBECDBFDF91CF911F910F91FF9074
:1007E000EF90DF90CF90BF90AF909F908F907F90D1
:1007F0006F905F904F903F902F9008951F920F92AF
:100800000FB60F9211240BB60F922F933F938F9335
:100810009F93EF93FF9320915B0230915C02809154
:100820005D0290915E022817390731F48091310101
:100830008F7D8093310114C0E0915D02F0915E02E2
:10084000E55EFD4F208180915D0290915E020196F0
:100850008F73992790935E0280935D0220933601F7
:10086000FF91EF919F918F913F912F910F900BBE30
:100870000F900FBE0F901F9018951F920F920FB6FA
:100880000F9211240BB60F922F933F938F939F9348
:10089000EF93FF93209105033091060380910703A6
:1008A000909108032817390731F48091D1008F7D8A
:1008B0008093D10014C0E0910703F0910803EB533B
:1008C000FD4F2081809107039091080301968F735B
:1008D000992790930803809307032093D600FF91F4
:1008E000EF919F918F913F912F910F900BBE0F90A1
:1008F0000FBE0F901F9018951F920F920FB60F9278
:1009000011240BB60F922F933F938F939F93EF93E6
:10091000FF932091AF033091B0038091B103909188
:10092000B2032817390731F48091C9008F7D809375
:10093000C90014C0E091B103F091B203E159FC4F3A
:1009400020818091B1039091B20301968F73992712
:100950009093B2038093B1032093CE00FF91EF9167
:100960009F918F913F912F910F900BBE0F900FBED3
:100970000F901F9018951F920F920FB60F9211248F
:100980000BB60F922F933F938F939F93EF93FF9309
:100990002091590430915A0480915B0490915C0439
:1009A0002817390731F48091C1008F7D8093C100F1
:1009B00014C0E0915B04F0915C04E75EFB4F208182
:1009C00080915B0490915C0401968F7399279093BA
:1009D0005C0480935B042093C600FF91EF919F918C
:1009E0008F913F912F910F900BBE0F900FBE0F90E4
:1009F0001F9018951F920F920FB60F9211240BB6ED
:100A00000F922F933F934F935F936F937F938F93A7
:100A10009F93AF93BF93EF93FF938091300182FD3B
:100A200007C0809136016FE572E00E947F0202C02C
:100A300080913601FF91EF91BF91AF919F918F917E
:100A40007F916F915F914F913F912F910F900BBECE
:100A50000F900FBE0F901F9018951F920F920FB618
:100A60000F9211240BB60F922F933F934F935F93E6
:100A70006F937F938F939F93AF93BF93EF93FF9366
:100A80008091D00082FD07C08091D60069E073E0BC
:100A90000E947F0202C08091D600FF91EF91BF912A
:100AA000AF919F918F917F916F915F914F913F9106
:100AB0002F910F900BBE0F900FBE0F901F901895A7
:100AC0001F920F920FB60F9211240BB60F922F9315
:100AD0003F934F935F936F937F938F939F93AF93C6
:100AE000BF93EF93FF938091C80082FD07C0809170
:100AF000CE0063EB73E00E947F0202C08091CE00C3
:100B0000FF91EF91BF91AF919F918F917F916F91E5
:100B10005F914F913F912F910F900BBE0F900FBEA1
:100B20000F901F9018951F920F920FB60F921124DD
:100B30000BB60F922F933F934F935F936F937F93D7
:100B40008F939F93AF93BF93EF93FF938091C000D8
:100B500082FD07C08091C6006DE574E00E947F02AF
:100B600002C08091C600FF91EF91BF91AF919F911C
:100B70008F917F916F915F914F913F912F910F9046
:100B80000BBE0F900FBE0F901F9018951F920F92E3
:100B90000FB60F9211242F933F938F939F93AF9390
:100BA000BF938091170290911802A0911902B09101
:100BB0001A023091160223E0230F2D3720F40196FC
:100BC000A11DB11D05C026E8230F0296A11DB11D70
:100BD000209316028093170290931802A093190293
:100BE000B0931A028091120290911302A091140204
:100BF000B09115020196A11DB11D80931202909330
:100C00001302A0931402B0931502BF91AF919F916C
:100C10008F913F912F910F900FBE0F901F901895BD
:100C2000CF92DF92EF92FF92E1EAF4E01382128218
:100C300088EEC82E83E0D82EE12CF12CC482D58218
:100C4000E682F78264E072E0718360838DE594E070
:100C50009587848789E194E09787868785EC90E083
:100C6000918B808B84EC90E0938B828B80EC90E076
:100C7000958B848B81EC90E0978B868B82EC90E057
:100C8000918F808F86EC90E0938F828F44E0448F29
:100C900033E0358F27E0268F95E0978F81E080A3A2
:100CA000E7EFF3E013821282C482D582E682F782F4
:100CB00071836083A3EBB3E0B587A487AFE6B3E0AD
:100CC000B787A687ADECB0E0B18BA08BACECB0E001
:100CD000B38BA28BA8ECB0E0B58BA48BA9ECB0E0F1
:100CE000B78BA68BAAECB0E0B18FA08FAEECB0E0D2
:100CF000B38FA28F448F358F268F978F80A3EDE41B
:100D0000F3E013821282C482D582E682F782718375
:100D10006083A9E0B3E0B587A487A5ECB2E0B7870C
:100D2000A687A5EDB0E0B18BA08BA4EDB0E0B38BAE
:100D3000A28BA0EDB0E0B58BA48BA1EDB0E0B78B9A
:100D4000A68BA2EDB0E0B18FA08FA6EDB0E0B38F7F
:100D5000A28F448F358F268F978F80A3E3EAF2E02E
:100D600013821282C482D582E682F7827183608305
:100D70006FE572E0758764876BE172E0778766875D
:100D800065E371E0718B608B64E371E0738B628B60
:100D900060E371E0758B648B61E371E0778B668B48
:100DA00062E371E0718F608F66E371E0738F628F31
:100DB000448F358F268F978F80A3FF90EF90DF9021
:100DC000CF900895CF93DF93CDB7DEB72C970FB6B2
:100DD000F894DEBF0FBECDBF789484B5826084BD29
:100DE00084B5816084BD85B5826085BD85B581602F
:100DF00085BD80916E00816080936E0010928100AD
:100E00008091810082608093810080918100816067
:100E10008093810080918000816080938000809128
:100E2000B10084608093B1008091B00081608093B4
:100E3000B000809191008260809391008091910038
:100E400081608093910080919000816080939000F8
:100E50008091A10082608093A1008091A1008160B7
:100E60008093A1008091A00081608093A000809178
:100E70002101826080932101809121018160809312
:100E800021018091200181608093200180917A006E
:100E9000846080937A0080917A00826080937A00E7
:100EA00080917A00816080937A0080917A008068D6
:100EB00080937A001092C10081EA94E00E9475014B
:100EC00083EA92E00E94750163E072E0FB014491C5
:100ED0002DEB31E0F90184918823E1F090E0880F57
:100EE000991FFC01E458FE4FA591B491FC01EE5905
:100EF000FE4F859194919A8389835FB7F8949C9172
:100F0000842F809598239C93A981BA819C918923F1
:100F10008C935FBFE9E4F2E08491FB016491F901F5
:100F20002491222309F4FBC0882309F451C090E0E6
:100F3000FC013197E131F10508F04AC08827EE58ED
:100F4000FF4F8F4F0C94CD08809180008F7703C0A6
:100F5000809180008F7D809380003AC084B58F7728
:100F600002C084B58F7D84BD33C08091B0008F777F
:100F700003C08091B0008F7D8093B00029C0809124
:100F800090008F7707C0809190008F7D03C0809183
:100F90009000877F809390001BC08091A0008F7786
:100FA00007C08091A0008F7D03C08091A000877F43
:100FB0008093A0000DC0809120018F7707C08091A1
:100FC00020018F7D03C080912001877F80932001C5
:100FD000E22FF0E0EE0FFF1FEA56FE4FA591B4910D
:100FE0008C91682309F49BC02BE0A22EB12CC12C5C
:100FF000D12C25EF34E741E050E029873A874B8731
:101000005C8737E5432E3BE4532E66246394712CB2
:101010008FED99E6A0E0B0E08D839E83AF83B88723
:1010200081EA94E00E946F02181619060CF040C085
:1010300081EA94E00E9433029C01990F440B550B06
:1010400029833A834B835C83698181EA94E00E941F
:10105000E40189819A81AB81BC810D97A105B1051D
:10106000D9F441E050E060E172E081EA94E00E944E
:10107000BC0183017201A60195016DE070E080E082
:1010800090E00E9402030E94DD02A60195016AE041
:1010900070E080E090E008C083017201A601950134
:1010A00069817A818B819C810E9402030E94DD020A
:1010B00083EA92E00E946F0204970CF4B1CF0E9481
:1010C0009902E984FA840B851C852D813E814F812C
:1010D00058850E9402036D30710581059105B9F4B0
:1010E0006DE070E081EA94E00E9426020E9499027D
:1010F000E984FA840B851C852D813E814F815885BA
:101100000E94020381EA94E00E94E40189CF062E46
:10111000000C770B81EA94E00E94260281CF87E0E1
:10112000A82EB12CC12CD12C27E53BE441E050E0A6
:1011300029873A874B875C8795EF492E94E7592E8C
:1011400066246394712C83E995E9A0E0B0E064CF54
:10115000F8940C94D508A1E21A2EAA1BBB1BFD0122
:101160000DC0AA1FBB1FEE1FFF1FA217B307E40786
:10117000F50720F0A21BB30BE40BF50B661F771FDE
:10118000881F991F1A9469F76095709580959095BE
:101190009B01AC01BD01CF010895EE0FFF1F881F19
:0E11A0008BBF0790F691E02D1994F894FFCFC5
:1011AE0000000000E401BC016F023302530228026A
:0211BE000A0025
:00000001FF
