:100000000C9442010C9473010C9473010C947301D1
:100010000C9473010C9473010C9473010C94730190
:100020000C9473010C9473010C9473010C94730180
:100030000C9473010C9473010C9473010C94730170
:100040000C9473010C9473010C9473010C94730160
:100050000C9473010C9473010C9473010C94660658
:100060000C9473010C9433060C945B050C9473018F
:100070000C9473010C9473010C9473010C94730130
:100080000C9473010C9473010C9473010C94730120
:100090000C9400060C941C050C9473010C947301D1
:1000A0000C9473010C9473010C9473010C94730100
:1000B0000C9473010C9473010C9473010C947301F0
:1000C0000C9473010C9473010C9473010C94CD0582
:1000D0000C94DD040C9473010C949A050C949E040A
:1000E0000C9473015008530846084A088A085708B8
:1000F0005B086108650869086F08730877088A0853
:100100007D08810885080C9473080C944A080C94A7
:1001100061080C9477080C942A020C945B080C94E8
:1001200053080C947D080C9465080C9457080C94A3
:100130006F080C9446080C9446020C9450080C94DA
:1001400069080C9481080C9471020C948A080C9430
:1001500085080C94B0060C94BB010C94FF010C9420
:100160000A0200002200250028002B002E0031008A
:10017000340002010000050108010B01000021000C
:10018000240027002A002D00300033000101000068
:10019000040107010A0100002000230026002900B5
:1001A0002C002F00320000010000030106010901AC
:1001B00005050505070508080808020202020A0AE3
:1001C0000808040404040101010101010101030301
:1001D000030303030303040707070C0C0C0C0C0CAC
:1001E0000C0C0202020206060606060606060B0BA9
:1001F0000B0B0B0B0B0B01021020200808102040EA
:1002000010204080020102010804020101020408DA
:100210001020408080402010080402018004020168
:1002200080402010080402010804020101020408B1
:100230001020408001020408102040800000090ABC
:1002400002080B0C0D07060304010000000000006B
:10025000000000000000000000000000000000009E
:10026000000000000000000011100F00000000005E
:10027000000000000000000000000000000000007E
:100280000000B00611241FBECFEFD1E2DEBFCDBF0C
:1002900000E00CBF12E0A0E0B2E0EEECF4E100E020
:1002A0000BBF02C007900D92AC34B107D9F724E020
:1002B000ACE4B2E001C01D92AD3FB207E1F711E03E
:1002C000C2E4D1E000E006C021970109802FFE01C1
:1002D0000E945D0AC134D10780E00807A9F70E9497
:1002E00082070C94380A0C940000FC01A489B5899B
:1002F00081E090E09C0100A002C0220F331F0A940D
:10030000E2F72C93A089B1891C92A289B3892FECC2
:100310002C9311A2A689B7894C919C01048C02C030
:10032000220F331F0A94E2F7242B2C93A689B78956
:100330004C919C01058C02C0220F331F0A94E2F7F6
:10034000242B2C93A689B7894C919C01068C02C062
:10035000220F331F0A94E2F7242B2C93A689B78926
:100360002C91078C02C0880F991F0A94E2F78095A0
:1003700082238C9308950F931F93CF93DF93FC01F7
:10038000A685B7858D01005C1F4FE80188819981A2
:1003900001968F739927AD014E5B5F4FEA0128816B
:1003A000398128173907D1F3E80128813981A20F53
:1003B000B31F6C93A685B785A05CBF4F11969C9325
:1003C0008E93A689B7892C9181E090E0078C02C0BA
:1003D000880F991F0A94E2F7822B8C9381E081A306
:1003E0000488F589E02D80818064808381E090E03D
:1003F000DF91CF911F910F9108950C94BB01FC01E7
:1004000081A1882329F0A489B5898C9186FFFBCF2F
:1004100011A20895FC01A485B585FD01E05CFF4FA4
:10042000208131813296808191812817390779F0B6
:1004300080819181A80FB91F8C91208131812F5F1C
:100440003F4F2F7333273183208390E008958FEF40
:100450009FEF0895DC011C96ED91FC911D97DF0143
:10046000A05CBF4F2D913C91119712968D919C915C
:1004700011972817390739F08D919C91E80FF91FD2
:10048000808190E008958FEF9FEF0895FC0124850F
:100490003585F901E05CFF4F8081918132962081A2
:1004A0003181821B930B8F7399270895FB01E05CC8
:1004B000FF4F20813181DB01AE5BBF4F4D915C91DD
:1004C0002F5F3F4F2F7333274217530741F040816F
:1004D0005181DB01A40FB51F8C93318320830895D4
:1004E0000895CF92DF92EF92FF920F931F93CF93D5
:1004F000DF936C01EB017B01E40EF51E00E010E0E0
:10050000CE15DF0561F06991D601ED91FC91019066
:10051000F081E02DC6011995080F191FF1CFC80110
:10052000DF91CF911F910F91FF90EF90DF90CF90CF
:1005300008953FB7F89480914D0290914E02A0919A
:100540004F02B091500226B5A89B05C02F3F19F06D
:100550000196A11DB11D3FBFBA2FA92F982F882743
:10056000820F911DA11DB11DBC01CD0142E0660F9E
:10057000771F881F991F4A95D1F70895CF92DF9270
:10058000EF92FF920F931F93CF93DF939FB7F8944F
:10059000C090D704D090D804E090D904F090DA0449
:1005A0009FBF98EEC90E93E0D91EE11CF11CC82F25
:1005B000D0E08BED94E00E9446028C179D07DCF49E
:1005C0002FB7F8948091D7049091D804A091D904C2
:1005D000B091DA042FBF8C159D05AE05BF0558F408
:1005E0000E9499028B010E949902601B710B683E68
:1005F0007340F8F6F8CF8BED94E00E94460221E0BC
:100600008C179D070CF420E0822FDF91CF911F9172
:100610000F91FF90EF90DF90CF900895CF92DF92EF
:10062000EF92FF928BED94E00E940A027C018BED29
:1006300094E00E940A026C018BED94E00E940A0291
:10064000A601DD0C660B770B762F652F542F442700
:10065000092E000CAA0BBB0BDC0199278827842BE1
:10066000952BA62BB72B6701FF0CEE08FF08C82AB5
:10067000D92AEA2AFB2A8BED94E00E940A02092E6D
:10068000000CAA0BBB0BB82FAA2799278827BC01FF
:10069000CD016C297D298E299F29FF90EF90DF9055
:1006A000CF9008951F93CF93DF93172FD82FC92F83
:1006B000062E000C770B8BED94E00E94FD01612F5C
:1006C000110F770B8BED94E00E94FD016D2FDD0F74
:1006D000770B8BED94E00E94FD016C2FCC0F770B14
:1006E0008BED94E0DF91CF911F910C94FD012F923F
:1006F0003F924F925F926F927F928F929F92AF92B2
:10070000BF92CF92DF92EF92FF920F931F93CF93FE
:10071000DF93CDB7DEB72C970FB6F894DEBF0FBED0
:10072000CDBF2B013C0129833A834B835C83812C11
:10073000912C5401839429813A814B815C8121154C
:1007400031054105510509F4B3C020FF57C0C5016B
:10075000B401A80197010E943B0A6D837E838F83B9
:100760009887C301B201A80197010E943B0A6B015F
:1007700089879A87812C912C54011C861B8681E0E5
:1007800090E0A0E0B0E00B8404C0880F991FAA1F7E
:10079000BB1F0A94D2F72D813E814F815885822359
:1007A0009323A423B523892B8A2B8B2B01F1B6012C
:1007B00089859A85212C312C4B855C85241635063C
:1007C00061F0660F771F881F991FA80197010E948B
:1007D0003B0A5FEF251A350AEFCF680D791D8A1D98
:1007E0009B1DA80197010E943B0A4B015C018B8570
:1007F0009C8501969C878B874F9709F6C301B201B0
:10080000A80197010E943B0A6D837E838F8398879E
:10081000412C512C32011C861B8681E090E0A0E027
:10082000B0E00B8404C0880F991FAA1FBB1F0A9455
:10083000D2F72D813E814F81588582239323A423B3
:10084000B523892B8A2B8B2BF9F0CA01B901C12C56
:10085000D12C4B855C85C416D50661F0660F771FD9
:10086000881F991FA80197010E943B0A5FEFC51AD4
:10087000D50AEFCF640D751D861D971DA801970140
:100880000E943B0A2B013C018B859C8501969C872D
:100890008B874F9711F629813A814B815C81569560
:1008A00047953795279529833A834B835C8343CFBC
:1008B000C501B4012C960FB6F894DEBF0FBECDBFB4
:1008C000DF91CF911F910F91FF90EF90DF90CF902C
:1008D000BF90AF909F908F907F906F905F904F9060
:1008E0003F902F9008950F931F93CF93DF9300971E
:1008F00079F0FC0101900020E9F73197AF01481B26
:10090000590BBC0185EB94E00E9471028C0102C07E
:1009100000E010E06DE085EB94E00E94BB01EC018B
:100920006AE085EB94E00E94BB01C00FD11F8C0FE1
:100930009D1FDF91CF911F910F9108951F920F92EC
:100940000FB60F9211240BB60F922F933F938F93F4
:100950009F93EF93FF9320919102309192028091A7
:100960009302909194022817390731F48091310154
:100970008F7D8093310114C0E0919302F091940235
:10098000EF5AFD4F2081809193029091940201963D
:100990008F7399279093940280939302209336014A
:1009A000FF91EF919F918F913F912F910F900BBEEF
:1009B0000F900FBE0F901F9018951F920F920FB6B9
:1009C0000F9211240BB60F922F933F938F939F9307
:1009D000EF93FF932091190330911A0380911B0329
:1009E00090911C032817390731F48091D1008F7D35
:1009F0008093D10014C0E0911B03F0911C03E752D7
:100A0000FD4F208180911B0390911C0301968F73F1
:100A1000992790931C0380931B032093D600FF918A
:100A2000EF919F918F913F912F910F900BBE0F905F
:100A30000FBE0F901F9018951F920F920FB60F9236
:100A400011240BB60F922F933F938F939F93EF93A5
:100A5000FF932091C3033091C4038091C50390910B
:100A6000C6032817390731F48091C9008F7D809320
:100A7000C90014C0E091C503F091C603ED57FC4FC7
:100A800020818091C5039091C60301968F739927A9
:100A90009093C6038093C5032093CE00FF91EF91FE
:100AA0009F918F913F912F910F900BBE0F900FBE92
:100AB0000F901F9018951F920F920FB60F9211244E
:100AC0000BB60F922F933F938F939F93EF93FF93C8
:100AD00020916D0430916E0480916F0490917004A8
:100AE0002817390731F48091C1008F7D8093C100B0
:100AF00014C0E0916F04F0917004E35DFB4F20811E
:100B000080916F049091700401968F739927909350
:100B1000700480936F042093C600FF91EF919F9122
:100B20008F913F912F910F900BBE0F900FBE0F90A2
:100B30001F9018951F920F920FB60F9211240BB6AB
:100B40000F922F933F934F935F936F937F938F9366
:100B50009F93AF93BF93EF93FF938091300182FDFA
:100B600007C08091360165E972E00E94560202C01A
:100B700080913601FF91EF91BF91AF919F918F913D
:100B80007F916F915F914F913F912F910F900BBE8D
:100B90000F900FBE0F901F9018951F920F920FB6D7
:100BA0000F9211240BB60F922F933F934F935F93A5
:100BB0006F937F938F939F93AF93BF93EF93FF9325
:100BC0008091D00082FD07C08091D6006DE173E076
:100BD0000E94560202C08091D600FF91EF91BF9112
:100BE000AF919F918F917F916F915F914F913F91C5
:100BF0002F910F900BBE0F900FBE0F901F90189566
:100C00001F920F920FB60F9211240BB60F922F93D3
:100C10003F934F935F936F937F938F939F93AF9384
:100C2000BF93EF93FF938091C80082FD07C080912E
:100C3000CE0067EC73E00E94560202C08091CE00A5
:100C4000FF91EF91BF91AF919F918F917F916F91A4
:100C50005F914F913F912F910F900BBE0F900FBE60
:100C60000F901F9018951F920F920FB60F9211249C
:100C70000BB60F922F933F934F935F936F937F9396
:100C80008F939F93AF93BF93EF93FF938091C00097
:100C900082FD07C08091C60061E774E00E945602A1
:100CA00002C08091C600FF91EF91BF91AF919F91DB
:100CB0008F917F916F915F914F913F912F910F9005
:100CC0000BBE0F900FBE0F901F9018951F920F92A2
:100CD0000FB60F9211242F933F938F939F93AF934F
:100CE000BF938091D7049091D804A091D904B0917A
:100CF000DA0430914C0223E0230F2D3720F40196C3
:100D0000A11DB11D05C026E8230F0296A11DB11D2E
:100D100020934C028093D7049093D804A093D904D5
:100D2000B093DA0480914D0290914E02A0914F024F
:100D3000B09150020196A11DB11D80934D02909378
:100D40004E02A0934F02B0935002BF91AF919F917A
:100D50008F913F912F910F900FBE0F901F9018957C
:100D6000CF92DF92EF92FF92E5EBF4E013821282D2
:100D700088EEC82E83E0D82EE12CF12CC482D582D7
:100D8000E682F78264E172E07183608381E794E038
:100D9000958784878DE294E09787868785EC90E03D
:100DA000918B808B84EC90E0938B828B80EC90E035
:100DB000958B848B81EC90E0978B868B82EC90E016
:100DC000918F808F86EC90E0938F828F44E0448FE8
:100DD00033E0358F27E0268F95E0978F81E080A361
:100DE000EBE0F4E013821282C482D582E682F782BD
:100DF00071836083A7ECB3E0B587A487A3E8B3E071
:100E0000B787A687ADECB0E0B18BA08BACECB0E0BF
:100E1000B38BA28BA8ECB0E0B58BA48BA9ECB0E0AF
:100E2000B78BA68BAAECB0E0B18FA08FAEECB0E090
:100E3000B38FA28F448F358F268F978F80A3E1E6E3
:100E4000F3E013821282C482D582E682F782718334
:100E50006083ADE1B3E0B587A487A9EDB2E0B787C1
:100E6000A687A5EDB0E0B18BA08BA4EDB0E0B38B6D
:100E7000A28BA0EDB0E0B58BA48BA1EDB0E0B78B59
:100E8000A68BA2EDB0E0B18FA08FA6EDB0E0B38F3E
:100E9000A28F448F358F268F978F80A3EBEDF4E0E0
:100EA00013821282C482D582E682F78271836083C4
:100EB00065E972E07587648761E572E07787668728
:100EC00065E371E0718B608B64E371E0738B628B1F
:100ED00060E371E0758B648B61E371E0778B668B07
:100EE00062E371E0718F608F66E371E0738F628FF0
:100EF000448F358F268F978F80A3FF90EF90DF90E0
:100F0000CF900895CF93DF93CDB7DEB72C970FB670
:100F1000F894DEBF0FBECDBF789484B5826084BDE7
:100F200084B5816084BD85B5826085BD85B58160ED
:100F300085BD80916E00816080936E00109281006B
:100F40008091810082608093810080918100816026
:100F500080938100809180008160809380008091E7
:100F6000B10084608093B1008091B0008160809373
:100F7000B0008091910082608093910080919100F7
:100F800081608093910080919000816080939000B7
:100F90008091A10082608093A1008091A100816076
:100FA0008093A1008091A00081608093A000809137
:100FB00021018260809321018091210181608093D1
:100FC00021018091200181608093200180917A002D
:100FD000846080937A0080917A00826080937A00A6
:100FE00080917A00816080937A0080917A00806895
:100FF00080937A001092C10085EB94E00E94750105
:101000008BED94E00E94750103E012E0F801249159
:10101000EDEBF1E084918823C9F090E0880F991FEF
:10102000FC01E458FE4FA591B491FC01EE59FE4F2E
:10103000459154913FB7F8949C91822F80959823C5
:101040009C93DA019C9189238C933FBF80E292E0CC
:101050000E947304E9E4F2E08491F8010491EDEB5D
:10106000F1E0F491F983FF2309F47DC0882309F4AA
:1010700051C090E0FC013197E131F10508F04AC020
:101080008827EE58FF4F8F4F0C945D0A80918000A7
:101090008F7703C0809180008F7D809380003AC05D
:1010A00084B58F7702C084B58F7D84BD33C08091B5
:1010B000B0008F7703C08091B0008F7D8093B00027
:1010C00029C0809190008F7707C0809190008F7D1C
:1010D00003C080919000877F809390001BC0809117
:1010E000A0008F7707C08091A0008F7D03C0809102
:1010F000A000877F8093A0000DC0809120018F7792
:1011000007C0809120018F7D03C080912001877FDF
:10111000809320012981E22FF0E0EE0FFF1FEA56B5
:10112000FE4FA591B4918C910823E9F0A0900C0298
:10113000B0900D02C0900E02D0900F0240900802B5
:101140005090090260900A0270900B0220910402F4
:1011500030910502409106025091070229833A839B
:101160004B835C8334C0A0900402B0900502C09011
:101170000602D09007024090000250900102609059
:1011800002027090030280910C0290910D02A091D6
:101190000E02B0910F0289839A83AB83BC838FC008
:1011A00081E00E94BE02811115C04D815E81452BF8
:1011B000B9F38D819E810197A1F0ED81FE81339776
:1011C00009F058C081E00E94BE02811140C01E8219
:1011D0001D82EBCF8BED94E00E940A0283349105CF
:1011E00021F788E00E94BE02882389F30E940E0343
:1011F000609308027093090280930A0290930B0295
:101200000E940E036093040270930502809306020D
:101210009093070261E470E08BED94E00E94FD0181
:10122000609100027091010280910202909103028C
:101230000E94520360910C0270910D0280910E0287
:1012400090910F020E945203A3E0B0E00BC18BED1E
:1012500094E00E940A02833409F402C1813409F047
:10126000A4CF2FED39E640E050E029873A874B873D
:101270005C8771C02D813E812230310509F095CF08
:1012800088E00E94BE02882309F4A1CF0E940E03C9
:10129000609308027093090280930A0290930B02F4
:1012A0000E940E036093040270930502809306026D
:1012B0009093070243E050E05E834D8376CF80E059
:1012C00090E0892BA1F463E470E08BED94E00E9440
:1012D000FD01609108027091090280910A029091CB
:1012E0000B020E945203C601B5010E94520381E025
:1012F0000E94BE02882319F38BED94E00E940A023B
:101300008134910509F0B1C088E00E94BE028823B3
:10131000B1F20E940E036093000270930102809369
:101320000202909303020E940E0360930C027093DA
:101330000D0280930E0290930F0261E470E08BED3A
:1013400094E00E94FD0183E995E9A0E0B0E089877F
:101350009A87AB87BC878EE292E00E94730485EB8C
:1013600094E00E944602181619060CF048C085EB5E
:1013700094E00E940A029C01990F440B550B2D83A7
:101380003E834F8358876D8185EB94E00E94BB01BB
:101390008D819E81AF81B8850D97A105B10509F5B5
:1013A00041E050E069E472E085EB94E00E94710254
:1013B000E980FA800B811C81A30192016DE070E04D
:1013C00080E090E00E9477030E945203E980FA8057
:1013D0000B811C81A30192016AE070E080E090E043
:1013E0000AC0E980FA800B811C81A30192016D8102
:1013F0007E818F8198850E9477030E9452038BED36
:1014000094E00E94460204970CF4A9CF0E940E03B8
:101410008601750129853A854B855C850E94770395
:101420006D3071058105910599F46DE070E085EBF3
:1014300094E00E94FD010E940E0329853A854B85A8
:101440005C850E94770385EB94E00E94BB0187CF07
:10145000062E000C770B85EB94E00E94FD017FCFF8
:10146000A2E0B0E0BE83AD83A0CE81E090E029CFC2
:10147000F8940C94650AA1E21A2EAA1BBB1BFD016D
:101480000DC0AA1FBB1FEE1FFF1FA217B307E40763
:10149000F50720F0A21BB30BE40BF50B661F771FBB
:1014A000881F991F1A9469F760957095809590959B
:1014B0009B01AC01BD01CF010895EE0FFF1F881FF6
:0E14C0008BBF0790F691E02D1994F894FFCFA2
:1014CE0007000000574B01000B000000F5740100EF
:1014DE0000000000BB01710246020A022A02FF014F
:1014EE00436F6E6E656374696E672E2E2E00434FCA
:1014FE004E4E454354454420456E6A6F79204368ED
:0C150E00617474696E673A20000A0000E6
:00000001FF
