:100000000C9442010C9473010C9473010C947301D1
:100010000C9473010C9473010C9473010C94730190
:100020000C9473010C9473010C9473010C94730180
:100030000C9473010C9473010C9473010C94730170
:100040000C9473010C9473010C9473010C94730160
:100050000C9473010C9473010C9473010C9465055A
:100060000C9473010C9432050C945A040C94730193
:100070000C9473010C9473010C9473010C94730130
:100080000C9473010C9473010C9473010C94730120
:100090000C94FF040C941B040C9473010C947301D6
:1000A0000C9473010C9473010C9473010C94730100
:1000B0000C9473010C9473010C9473010C947301F0
:1000C0000C9473010C9473010C9473010C94CC0484
:1000D0000C94DC030C9473010C9499040C949D0310
:1000E0000C9473014107440737073B077B07480718
:1000F0004C07520756075A076007640768077B07D3
:100100006E07720776070C9402020C9449020C9455
:100110000D020C943B070C9476070C94BB010C94D5
:1001200044070C944C070C945A070C9448070C9401
:1001300072070C94AF050C9452070C9460070C9452
:1001400064070C947B070C9474020C9468070C945D
:100150006E070C9441070C9456070C942D020C94D6
:10016000370700002200250028002B002E00310058
:10017000340002010000050108010B01000021000C
:10018000240027002A002D00300033000101000068
:10019000040107010A0100002000230026002900B5
:1001A0002C002F00320000010000030106010901AC
:1001B00005050505070508080808020202020A0AE3
:1001C0000808040404040101010101010101030301
:1001D000030303030303040707070C0C0C0C0C0CAC
:1001E0000C0C0202020206060606060606060B0BA9
:1001F0000B0B0B0B0B0B01021020200808102040EA
:1002000010204080020102010804020101020408DA
:100210001020408080402010080402018004020168
:1002200080402010080402010804020101020408B1
:100230001020408001020408102040800000090ABC
:1002400002080B0C0D07060304010000000000006B
:10025000000000000000000000000000000000009E
:10026000000000000000000011100F00000000005E
:10027000000000000000000000000000000000007E
:100280000000AF0511241FBECFEFD1E2DEBFCDBF0E
:1002900000E00CBF12E0A0E0B2E0EAEAF0E100E02A
:1002A0000BBF02C007900D92A63BB107D9F725E01E
:1002B000A6EBB2E001C01D92A736B207E1F711E04C
:1002C000C2E4D1E000E006C021970109802FFE01C1
:1002D0000E944B08C134D10780E00807A9F70E94AB
:1002E00081060C9448080C940000FC01A489B5898F
:1002F00081E090E09C0100A002C0220F331F0A940D
:10030000E2F72C93A089B1891C92A289B3892FECC2
:100310002C9311A2A689B7894C919C01048C02C030
:10032000220F331F0A94E2F7242B2C93A689B78956
:100330004C919C01058C02C0220F331F0A94E2F7F6
:10034000242B2C93A689B7894C919C01068C02C062
:10035000220F331F0A94E2F7242B2C93A689B78926
:100360002C91078C02C0880F991F0A94E2F78095A0
:1003700082238C9308950F931F93CF93DF93FC01F7
:10038000A685B7858D01005C1F4FE80188819981A2
:1003900001968F739927AD014E5B5F4FEA0128816B
:1003A000398128173907D1F3E80128813981A20F53
:1003B000B31F6C93A685B785A05CBF4F11969C9325
:1003C0008E93A689B7892C9181E090E0078C02C0BA
:1003D000880F991F0A94E2F7822B8C9381E081A306
:1003E0000488F589E02D80818064808381E090E03D
:1003F000DF91CF911F910F910895682F85E495E0CB
:100400000C94BB01FC0181A1882329F0A489B58942
:100410008C9186FFFBCF11A20895FC01A485B585C0
:10042000FD01E05CFF4F2081318132968081918116
:100430002817390779F080819181A80FB91F8C9115
:10044000208131812F5F3F4F2F73332731832083EA
:1004500090E008958FEF9FEF0895DC011C96ED91D9
:10046000FC911D97DF01A05CBF4F2D913C9111972E
:1004700012968D919C9111972817390739F08D911B
:100480009C91E80FF91F808190E008958FEF9FEF16
:100490000895FC0124853585F901E05CFF4F8081DA
:1004A0009181329620813181821B930B8F73992722
:1004B0000895FB01E05CFF4F20813181DB01AE5BE1
:1004C000BF4F4D915C912F5F3F4F2F7333274217E2
:1004D000530741F040815181DB01A40FB51F8C937C
:1004E0003183208308950895CF92DF92EF92FF9297
:1004F0000F931F93CF93DF936C01EB017B01E40E0D
:10050000F51E00E010E0CE15DF0561F06991D6011F
:10051000ED91FC910190F081E02DC6011995080F35
:10052000191FF1CFC801DF91CF911F910F91FF905B
:10053000EF90DF90CF9008953FB7F8948091B70285
:100540009091B802A091B902B091BA0226B5A89BC9
:1005500005C02F3F19F00196A11DB11D3FBFBA2F55
:10056000A92F982F8827820F911DA11DB11DBC01B5
:10057000CD0142E0660F771F881F991F4A95D1F77A
:100580000895CF92DF92EF92FF920F931F93CF9334
:10059000DF939FB7F894C0904105D0904205E0905A
:1005A0004305F09044059FBF98EEC90E93E0D91E15
:1005B000E11CF11CC82FD0E085E495E00E944902BF
:1005C0008C179D07DCF42FB7F8948091410590912A
:1005D0004205A0914305B09144052FBF8C159D05A0
:1005E000AE05BF0558F40E949C028B010E949C023C
:1005F000601B710B683E7340F8F6F8CF85E495E018
:100600000E94490221E08C179D070CF420E0822F04
:10061000DF91CF911F910F91FF90EF90DF90CF90DE
:100620000895CF92DF92EF92FF9285E495E00E94C9
:100630000D027C0185E495E00E940D026C0185E4C9
:1006400095E00E940D02A601DD0C660B770B762F5C
:10065000652F542F4427092E000CAA0BBB0BDC017D
:1006600099278827842B952BA62BB72B6701FF0C86
:10067000EE08FF08C82AD92AEA2AFB2A85E495E071
:100680000E940D02092E000CAA0BBB0BB82FAA2743
:1006900099278827BC01CD016C297D298E299F29A6
:1006A000FF90EF90DF90CF9008951F93CF93DF934B
:1006B000172FD82FC92F862F660F990B0E94FD0187
:1006C000812F110F990B0E94FD018D2FDD0F990BCA
:1006D0000E94FD018C2FCC0F990BDF91CF911F91C0
:1006E0000C94FD010F931F93CF93DF93009779F044
:1006F000FC0101900020E9F73197AF01481B590B2D
:10070000BC018FE195E00E9474028C0102C000E000
:1007100010E06DE08FE195E00E94BB01EC016AE022
:100720008FE195E00E94BB01C00FD11F8C0F9D1F70
:10073000DF91CF911F910F9108951F920F920FB6E5
:100740000F9211240BB60F922F933F938F939F9389
:10075000EF93FF932091FB023091FC028091FD0208
:100760009091FE022817390731F4809131018F7D75
:100770008093310114C0E091FD02F091FE02E55436
:10078000FD4F20818091FD029091FE0201968F73B2
:1007900099279093FE028093FD0220933601FF91EA
:1007A000EF919F918F913F912F910F900BBE0F90E2
:1007B0000FBE0F901F9018951F920F920FB60F92B9
:1007C00011240BB60F922F933F938F939F93EF9328
:1007D000FF9320918303309184038091850390914E
:1007E00086032817390731F48091D1008F7D8093DB
:1007F000D10014C0E0918503F0918603ED5BFC4FBE
:100800002081809185039091860301968F739927AB
:1008100090938603809385032093D600FF91EF91F8
:100820009F918F913F912F910F900BBE0F900FBE14
:100830000F901F9018951F920F920FB60F921124D0
:100840000BB60F922F933F938F939F93EF93FF934A
:1008500020912D0430912E0480912F04909130042A
:100860002817390731F48091C9008F7D8093C90022
:1008700014C0E0912F04F0913004E351FC4F20812B
:1008800080912F049091300401968F739927909353
:10089000300480932F042093CE00FF91EF919F911D
:1008A0008F913F912F910F900BBE0F900FBE0F9025
:1008B0001F9018951F920F920FB60F9211240BB62E
:1008C0000F922F933F938F939F93EF93FF932091DA
:1008D000D7043091D8048091D9049091DA04281774
:1008E000390731F48091C1008F7D8093C10014C01D
:1008F000E091D904F091DA04E956FB4F2081809110
:10090000D9049091DA0401968F7399279093DA04B1
:100910008093D9042093C600FF91EF919F918F910E
:100920003F912F910F900BBE0F900FBE0F901F9015
:1009300018951F920F920FB60F9211240BB60F92BB
:100940002F933F934F935F936F937F938F939F93D7
:10095000AF93BF93EF93FF938091300182FD07C067
:10096000809136016FEF72E00E94590202C08091BF
:100970003601FF91EF91BF91AF919F918F917F9140
:100980006F915F914F913F912F910F900BBE0F9000
:100990000FBE0F901F9018951F920F920FB60F92D7
:1009A00011240BB60F922F933F934F935F936F9346
:1009B0007F938F939F93AF93BF93EF93FF93809118
:1009C000D00082FD07C08091D60067E873E00E94E6
:1009D000590202C08091D600FF91EF91BF91AF9173
:1009E0009F918F917F916F915F914F913F912F9147
:1009F0000F900BBE0F900FBE0F901F9018951F9277
:100A00000F920FB60F9211240BB60F922F933F93B4
:100A10004F935F936F937F938F939F93AF93BF9306
:100A2000EF93FF938091C80082FD07C08091CE00B4
:100A300061E374E00E94590202C08091CE00FF91F0
:100A4000EF91BF91AF919F918F917F916F915F9146
:100A50004F913F912F910F900BBE0F900FBE0F90B3
:100A60001F9018951F920F920FB60F9211240BB67C
:100A70000F922F933F934F935F936F937F938F9337
:100A80009F93AF93BF93EF93FF938091C00082FD3C
:100A900007C08091C6006BED74E00E94590202C04D
:100AA0008091C600FF91EF91BF91AF919F918F917F
:100AB0007F916F915F914F913F912F910F900BBE5E
:100AC0000F900FBE0F901F9018951F920F920FB6A8
:100AD0000F9211242F933F938F939F93AF93BF93C4
:100AE0008091410590914205A0914305B091440544
:100AF0003091B60223E0230F2D3720F40196A11D7B
:100B0000B11D05C026E8230F0296A11DB11D20933B
:100B1000B6028093410590934205A0934305B0939C
:100B200044058091B7029091B802A091B902B091AA
:100B3000BA020196A11DB11D8093B7029093B8022D
:100B4000A093B902B093BA02BF91AF919F918F91D8
:100B50003F912F910F900FBE0F901F901895CF923D
:100B6000DF92EF92FF92EFE1F5E01382128288EEBE
:100B7000C82E83E0D82EE12CF12CC482D582E682E7
:100B8000F78264E072E0718360838BED94E0958777
:100B9000848787E994E09787868785EC90E0918B3E
:100BA000808B84EC90E0938B828B80EC90E0958B33
:100BB000848B81EC90E0978B868B82EC90E0918F18
:100BC000808F86EC90E0938F828F44E0448F33E0F7
:100BD000358F27E0268F95E0978F81E080A3E5E7AA
:100BE000F4E013821282C482D582E682F782718396
:100BF0006083A1E3B4E0B587A487ADEEB3E0B78727
:100C0000A687ADECB0E0B18BA08BACECB0E0B38BC1
:100C1000A28BA8ECB0E0B58BA48BA9ECB0E0B78BAD
:100C2000A68BAAECB0E0B18FA08FAEECB0E0B38F92
:100C3000A28F448F358F268F978F80A3EBECF3E044
:100C400013821282C482D582E682F7827183608326
:100C5000A7E8B3E0B587A487A3E4B3E0B787A68786
:100C6000A5EDB0E0B18BA08BA4EDB0E0B38BA28B6F
:100C7000A0EDB0E0B58BA48BA1EDB0E0B78BA68B57
:100C8000A2EDB0E0B18FA08FA6EDB0E0B38FA28F40
:100C9000448F358F268F978F80A3E5E4F5E013828C
:100CA0001282C482D582E682F782718360836FEFFD
:100CB00072E0758764876BEB72E07787668765E320
:100CC00071E0718B608B64E371E0738B628B60E326
:100CD00071E0758B648B61E371E0778B668B62E307
:100CE00071E0718F608F66E371E0738F628F448F64
:100CF000358F268F978F80A3FF90EF90DF90CF9056
:100D00000895CF93DF93789484B5826084BD84B5D1
:100D1000816084BD85B5826085BD85B5816085BDF6
:100D200080916E00816080936E00109281008091AE
:100D30008100826080938100809181008160809336
:100D40008100809180008160809380008091B1005B
:100D500084608093B1008091B00081608093B00086
:100D600080919100826080939100809191008160D8
:100D70008093910080919000816080939000809199
:100D8000A10082608093A1008091A1008160809386
:100D9000A1008091A00081608093A000809121013A
:100DA00082608093210180912101816080932101E3
:100DB0008091200181608093200180917A0084607D
:100DC00080937A0080917A00826080937A0080918B
:100DD0007A00816080937A0080917A0080688093A5
:100DE0007A001092C1008FE195E00E94750185E4C0
:100DF00095E00E94750163E072E0FB0144912DEBE8
:100E000031E0F90184918823C1F090E0880F991FA7
:100E1000FC01E458FE4FA591B491FC01EE59FE4F40
:100E2000C591D4915FB7F8949C91842F80959823B5
:100E30009C939881892388835FBFE9E4F2E08491E1
:100E4000FB016491F9012491222309F464C08823F1
:100E500009F451C090E0FC013197E131F10508F04F
:100E60004AC08827EE58FF4F8F4F0C944B08809153
:100E700080008F7703C0809180008F7D80938000F9
:100E80003AC084B58F7702C084B58F7D84BD33C0EE
:100E90008091B0008F7703C08091B0008F7D8093E8
:100EA000B00029C0809190008F7707C0809190009A
:100EB0008F7D03C080919000877F809390001BC03E
:100EC0008091A0008F7707C08091A0008F7D03C024
:100ED0008091A000877F8093A0000DC080912001A9
:100EE0008F7707C0809120018F7D03C08091200102
:100EF000877F80932001E22FF0E0EE0FFF1FEA567C
:100F0000FE4FA591B4918C91682329F087EA92E075
:100F10000E94720320C08EEA92E00E9472036FC0AA
:100F200080E192E00E94720381E00E94C10281117F
:100F300015C02097A9F3C130D105B9F0C330D10550
:100F400009F048C08AE292E00E94720381E00E94A8
:100F5000C102811128C0C0E0D0E0EBCF85E495E06C
:100F60000E940D028334910521F78AE192E00E94EC
:100F7000720388E00E94C102882369F30E94110372
:100F80000E94110381E490E00E94FD0167E070E09F
:100F900080E090E00E94550365EF74E781E090E007
:100FA0000E94550329C08AE392E00E94720385E4FF
:100FB00095E00E940D02833439F488E492E00E94A7
:100FC0007203C2E0D0E0B5CF813409F0B2CF86E53C
:100FD00092E04CC0C230D10509F0ABCF84E692E07C
:100FE0000E94720388E00E94C102882309F4B3CFF3
:100FF0000E9411030E941103C3E0D0E09ACF80E069
:1010000090E0892BA1F486E792E00E94720383E4CA
:1010100090E00E94FD016BE070E080E090E00E94B3
:10102000550367E57BE481E090E00E9455038FE77C
:1010300092E00E94720381E00E94C1028823F9F2CB
:1010400085E495E00E940D0281349105F1F488E079
:101050000E94C102882399F20E9411030E94110389
:1010600081E490E00E94FD018FE892E00E9472030B
:101070008DE992E00E9472038FE195E00E940202E6
:1010800080E090E0DF91CF91089581E090E0B9CFCA
:10109000F8940C945308EE0FFF1F881F8BBF079026
:0A10A000F691E02D1994F894FFCFAB
:1010AA0000000000BB01740249020D022D02020277
:1010BA004C697374656E696E670057616974696E0D
:1010CA006720666F72206B65790057616974696E73
:1010DA006720666F722041434B0043686172205259
:1010EA00656365697665640052656164696E672047
:1010FA0074686520430052656164696E672074688C
:10110A006520410057616974696E6720666F7220B5
:10111A006B65792032005374617274696E67005787
:10112A00616974696E6720666F722061636B00443F
:10113A004154412045584348414E474500434F4E8C
:10114A004E45435445440053657276657200436CBC
:06115A0069656E740000DF
:00000001FF
