:100000000C9444010C9475010C9475010C947501C9
:100010000C9475010C9475010C9475010C94750188
:100020000C9475010C9475010C9475010C94750178
:100030000C9475010C9475010C9475010C94750168
:100040000C9475010C9475010C9475010C94750158
:100050000C9475010C9475010C9475010C943C057D
:100060000C9475010C9409050C9431040C947501E1
:100070000C9475010C9475010C9475010C94750128
:100080000C9475010C9475010C9475010C94750118
:100090000C94D6040C94F2030C9475010C94750125
:1000A0000C9475010C9475010C9475010C947501F8
:1000B0000C9475010C9475010C9475010C947501E8
:1000C0000C9475010C9475010C9475010C94A304A7
:1000D0000C94B3030C9475010C9470040C94740389
:1000E0000C9475012307260719071D075D072A07CA
:1000F0002E07340738073C07420746074A075D07C3
:100100005007540758070C9404020C944B020C94AB
:100110000F020C9419070C9434070C9446070C94A6
:10012000BD010C9423070C9426070C9458070C94DB
:1001300038070C943C070C941D070C9450070C9442
:1001400086050C9413030C9476020C942E070C94E1
:100150005D070C944A070C9442070C9454070C94C6
:100160002A070C942F0200002200250028002B00F3
:100170002E003100340002010000050108010B01CE
:1001800000002100240027002A002D003000330049
:1001900001010000040107010A0100002000230002
:1001A000260029002C002F0032000001000003016E
:1001B00006010901050505050705080808080202EA
:1001C00002020A0A080804040404010101010101F1
:1001D00001010303030303030303040707070C0CD4
:1001E0000C0C0C0C0C0C020202020606060606069B
:1001F00006060B0B0B0B0B0B0B0B01021020200840
:100200000810204010204080020102010804020171
:1002100001020408102040808040201008040201E0
:100220008004020180402010080402010804020139
:1002300001020408102040800102040810204080C0
:100240000000090A02080B0C0D0706030401000058
:10025000000000000000000000000000000000009E
:1002600000000000000000000000000011100F005E
:10027000000000000000000000000000000000007E
:10028000000000000000860511241FBECFEFD1E260
:10029000DEBFCDBF00E00CBF12E0A0E0B2E0E8E2BC
:1002A000F0E100E00BBF02C007900D92AA31B10748
:1002B000D9F724E0AAE1B2E001C01D92AB3CB2073D
:1002C000E1F711E0C4E4D1E000E006C021970109A4
:1002D000802FFE010E940A08C334D10780E008077E
:1002E000A9F70E9458060C9407080C940000FC0122
:1002F000A489B58981E090E09C0100A002C0220F92
:10030000331F0A94E2F72C93A089B1891C92A28929
:10031000B3892FEC2C9311A2A689B7894C919C012B
:10032000048C02C0220F331F0A94E2F7242B2C9373
:10033000A689B7894C919C01058C02C0220F331FFE
:100340000A94E2F7242B2C93A689B7894C919C013F
:10035000068C02C0220F331F0A94E2F7242B2C9341
:10036000A689B7892C91078C02C0880F991F0A941F
:10037000E2F7809582238C9308950F931F93CF9378
:10038000DF93FC01A685B7858D01005C1F4FE80156
:100390008881998101968F739927AD014E5B5F4FDC
:1003A000EA012881398128173907D1F3E80128812A
:1003B0003981A20FB31F6C93A685B785A05CBF4F90
:1003C00011969C938E93A689B7892C9181E090E039
:1003D000078C02C0880F991F0A94E2F7822B8C9336
:1003E00081E081A30488F589E02D80818064808389
:1003F00081E090E0DF91CF911F910F910895682FD8
:1004000089EA94E00C94BD01FC0181A1882329F0C4
:10041000A489B5898C9186FFFBCF11A20895FC01B8
:10042000A485B585FD01E05CFF4F208131813296C6
:10043000808191812817390779F080819181A80FF7
:10044000B91F8C91208131812F5F3F4F2F7333274C
:100450003183208390E008958FEF9FEF0895DC01B2
:100460001C96ED91FC911D97DF01A05CBF4F2D9173
:100470003C91119712968D919C91119728173907ED
:1004800039F08D919C91E80FF91F808190E00895DB
:100490008FEF9FEF0895FC0124853585F901E05C1D
:1004A000FF4F80819181329620813181821B930B95
:1004B0008F7399270895FB01E05CFF4F2081318104
:1004C000DB01AE5BBF4F4D915C912F5F3F4F2F73B0
:1004D00033274217530741F040815181DB01A40FBC
:1004E000B51F8C933183208308950895CF92DF92B6
:1004F000EF92FF920F931F93CF93DF936C01EB0169
:100500007B01E40EF51E00E010E0CE15DF0561F082
:100510006991D601ED91FC910190F081E02DC60129
:100520001995080F191FF1CFC801DF91CF911F91C5
:100530000F91FF90EF90DF90CF9008953FB7F89420
:1005400080911B0290911C02A0911D02B0911E028D
:1005500026B5A89B05C02F3F19F00196A11DB11D1E
:100560003FBFBA2FA92F982F8827820F911DA11D59
:10057000B11DBC01CD0142E0660F771F881F991F96
:100580004A95D1F70895CF92DF92EF92FF920F93A1
:100590001F93CF93DF939FB7F894C090A504D0909A
:1005A000A604E090A704F090A8049FBF98EEC90E9F
:1005B00093E0D91EE11CF11CC82FD0E089EA94E039
:1005C0000E944B028C179D07DCF42FB7F8948091A2
:1005D000A5049091A604A091A704B091A8042FBFF0
:1005E0008C159D05AE05BF0558F40E949E028B0137
:1005F0000E949E02601B710B683E7340F8F6F8CFB4
:1006000089EA94E00E944B0221E08C179D070CF4CC
:1006100020E0822FDF91CF911F910F91FF90EF90FB
:10062000DF90CF900895CF92DF92EF92FF9289EA08
:1006300094E00E940F027C0189EA94E00E940F027C
:100640006C0189EA94E00E940F02A601DD0C660BA2
:10065000770B762F652F542F4427092E000CAA0BF9
:10066000BB0BDC0199278827842B952BA62BB72B56
:100670006701FF0CEE08FF08C82AD92AEA2AFB2ADC
:1006800089EA94E00E940F02092E000CAA0BBB0B12
:10069000B82FAA2799278827BC01CD016C297D296D
:1006A0008E299F29FF90EF90DF90CF9008951F93A0
:1006B000CF93DF93172FD82FC92F862F660F990B53
:1006C0000E94FF01812F110F990B0E94FF018D2FB6
:1006D000DD0F990B0E94FF018C2FCC0F990BDF913E
:1006E000CF911F910C94FF011F920F920FB60F92A2
:1006F00011240BB60F922F933F938F939F93EF93F9
:10070000FF9320915F02309160028091610290918D
:1007100062022817390731F4809131018F7D80936F
:10072000310114C0E0916102F0916202E15EFD4F7F
:100730002081809161029091620201968F739927C6
:10074000909362028093610220933601FF91EF91B2
:100750009F918F913F912F910F900BBE0F900FBEE5
:100760000F901F9018951F920F920FB60F921124A1
:100770000BB60F922F933F938F939F93EF93FF931B
:100780002091E7023091E8028091E9029091EA021B
:100790002817390731F48091D1008F7D8093D100E3
:1007A00014C0E091E902F091EA02E955FD4F208181
:1007B0008091E9029091EA0201968F7399279093B4
:1007C000EA028093E9022093D600FF91EF919F9176
:1007D0008F913F912F910F900BBE0F900FBE0F90F6
:1007E0001F9018951F920F920FB60F9211240BB6FF
:1007F0000F922F933F938F939F93EF93FF932091AB
:100800009103309192038091930390919403281760
:10081000390731F48091C9008F7D8093C90014C0DD
:10082000E0919303F0919403EF5AFC4F2081809163
:1008300093039091940301968F7399279093940357
:10084000809393032093CE00FF91EF919F918F911E
:100850003F912F910F900BBE0F900FBE0F901F90E6
:1008600018951F920F920FB60F9211240BB60F928C
:100870002F933F938F939F93EF93FF9320913B048C
:1008800030913C0480913D0490913E042817390733
:1008900031F48091C1008F7D8093C10014C0E0913C
:1008A0003D04F0913E04E550FC4F208180913D04D1
:1008B00090913E0401968F73992790933E04809304
:1008C0003D042093C600FF91EF919F918F913F913E
:1008D0002F910F900BBE0F900FBE0F901F90189589
:1008E0001F920F920FB60F9211240BB60F922F93F7
:1008F0003F934F935F936F937F938F939F93AF93A8
:10090000BF93EF93FF938091300182FD07C08091E8
:10091000360163E672E00E945B0202C080913601FC
:10092000FF91EF91BF91AF919F918F917F916F91C7
:100930005F914F913F912F910F900BBE0F900FBE83
:100940000F901F9018951F920F920FB60F921124BF
:100950000BB60F922F933F934F935F936F937F93B9
:100960008F939F93AF93BF93EF93FF938091D000AA
:1009700082FD07C08091D6006BEE72E00E945B02A0
:1009800002C08091D600FF91EF91BF91AF919F91EE
:100990008F917F916F915F914F913F912F910F9028
:1009A0000BBE0F900FBE0F901F9018951F920F92C5
:1009B0000FB60F9211240BB60F922F933F934F93C4
:1009C0005F936F937F938F939F93AF93BF93EF93B7
:1009D000FF938091C80082FD07C08091CE0065E939
:1009E00073E00E945B0202C08091CE00FF91EF9104
:1009F000BF91AF919F918F917F916F915F914F9137
:100A00003F912F910F900BBE0F900FBE0F901F9034
:100A100018951F920F920FB60F9211240BB60F92DA
:100A20002F933F934F935F936F937F938F939F93F6
:100A3000AF93BF93EF93FF938091C00082FD07C0F7
:100A40008091C6006FE374E00E945B0202C0809157
:100A5000C600FF91EF91BF91AF919F918F917F91D0
:100A60006F915F914F913F912F910F900BBE0F901F
:100A70000FBE0F901F9018951F920F920FB60F92F6
:100A800011242F933F938F939F93AF93BF938091A4
:100A9000A5049091A604A091A704B091A804309158
:100AA0001A0223E0230F2D3720F40196A11DB11D5A
:100AB00005C026E8230F0296A11DB11D20931A023E
:100AC0008093A5049093A604A093A704B093A804D0
:100AD00080911B0290911C02A0911D02B0911E02F8
:100AE0000196A11DB11D80931B0290931C02A0933F
:100AF0001D02B0931E02BF91AF919F918F913F91C4
:100B00002F910F900FBE0F901F901895CF92DF92EC
:100B1000EF92FF92E3E8F4E01382128288EEC82E8F
:100B200083E0D82EE12CF12CC482D582E682F782B4
:100B300064E072E0718360838FE394E0958784873B
:100B40008BEF93E09787868785EC90E0918B808B85
:100B500084EC90E0938B828B80EC90E0958B848B7F
:100B600081EC90E0978B868B82EC90E0918F808F68
:100B700086EC90E0938F828F44E0448F33E0358F92
:100B800027E0268F95E0978F81E080A3E9EDF3E0E1
:100B900013821282C482D582E682F78271836083D7
:100BA000A5E9B3E0B587A487A1E5B3E0B787A68739
:100BB000ADECB0E0B18BA08BACECB0E0B38BA28B12
:100BC000A8ECB0E0B58BA48BA9ECB0E0B78BA68BFA
:100BD000AAECB0E0B18FA08FAEECB0E0B38FA28FE3
:100BE000448F358F268F978F80A3EFE2F3E0138237
:100BF0001282C482D582E682F78271836083ABEE73
:100C0000B2E0B587A487A7EAB2E0B787A687A5EDCB
:100C1000B0E0B18BA08BA4EDB0E0B38BA28BA0EDC4
:100C2000B0E0B58BA48BA1EDB0E0B78BA68BA2EDA5
:100C3000B0E0B18FA08FA6EDB0E0B38FA28F448F4C
:100C4000358F268F978F80A3E9EAF4E01382128212
:100C5000C482D582E682F7827183608363E672E0A4
:100C6000758764876FE172E07787668765E371E077
:100C7000718B608B64E371E0738B628B60E371E076
:100C8000758B648B61E371E0778B668B62E371E057
:100C9000718F608F66E371E0738F628F448F358F41
:100CA000268F978F80A3FF90EF90DF90CF900895CD
:100CB0004F925F926F927F92AF92BF92CF92DF92EC
:100CC000EF92FF921F93CF93DF93789484B5826065
:100CD00084BD84B5816084BD85B5826085BD85B5E0
:100CE000816085BD80916E00816080936E0010925E
:100CF00081008091810082608093810080918100D9
:100D00008160809381008091800081608093800069
:100D10008091B10084608093B1008091B0008160C7
:100D20008093B000809191008260809391008091C7
:100D30009100816080939100809190008160809308
:100D400090008091A10082608093A1008091A10019
:100D500081608093A1008091A00081608093A000B9
:100D60008091210182608093210180912101816025
:100D700080932101809120018160809320018091E6
:100D80007A00846080937A0080917A0082608093F8
:100D90007A0080917A00816080937A0080917A0055
:100DA000806880937A001092C10083E894E00E94EA
:100DB000770189EA94E00E94770167E072E0FB0125
:100DC000449121EC31E0F90184918823C1F090E055
:100DD000880F991FFC01E058FE4FA591B491FC01CA
:100DE000EA59FE4FC591D4915FB7F8949C91842F36
:100DF000809598239C939881892388835FBFEDE435
:100E0000F2E08491FB016491F9012491222309F419
:100E1000E0C0882309F451C090E0FC013197E13132
:100E2000F10508F04AC08827EE58FF4F8F4F0C9409
:100E30000A08809180008F7703C0809180008F7DA9
:100E4000809380003AC084B58F7702C084B58F7DCF
:100E500084BD33C08091B0008F7703C08091B00013
:100E60008F7D8093B00029C0809190008F7707C05C
:100E7000809190008F7D03C080919000877F809348
:100E800090001BC08091A0008F7707C08091A000C8
:100E90008F7D03C08091A000877F8093A0000DC04C
:100EA000809120018F7707C0809120018F7D03C042
:100EB00080912001877F80932001E22FF0E0EE0FE8
:100EC000FF1FE656FE4FA591B4918C91682309F45B
:100ED00080C011E08BE0C82ED12CE12CF12CC0E0B9
:100EE000D0E097E5492E9BE4592E66246394712C3B
:100EF00023E1A22E23E0B22E112309F443C00E9465
:100F00001303633471058105910519F0C0E0D0E049
:100F100007C088E00E94C302811106C0C1E0D0E092
:100F2000C330D10549F757C00E9413036B017C0100
:100F3000633471058105910589F30E9413032B0128
:100F40003C0163E270E080E090E00E94570367E0BC
:100F500070E080E090E00E94570365EF74E781E065
:100F600090E00E94570384E00E94C3028823B1F2FC
:100F700083E2A816B10419F0C2E0D0E0D1CFC3E0FB
:100F8000D0E0CECF63E470E080E090E00E945703B1
:100F9000C701B6010E945703C301B2010E94570363
:100FA00089E00E94C302882309F4BACF0E94130388
:100FB000633271058105910509F0B2CF0E941303D8
:100FC0000E94130363E270E080E090E00E94570308
:100FD00002C010E07FCF49E050E060E172E083E8BA
:100FE00094E00E94760283E894E00E94040280E08C
:100FF00090E0DF91CF911F91FF90EF90DF90CF9025
:10100000BF90AF907F906F905F904F900895F8944D
:101010000C941208EE0FFF1F881F8BBF0790F691EC
:08102000E02D1994F894FFCFB4
:1010280000000000BD0176024B020F022F020402ED
:0A103800434F4E4E4543544544001B
:00000001FF
